:020000040800F2
:10000000D80700201D20000835090008370900081E
:100010003B0900083F0900084309000800000000F0
:100020000000000000000000000000004709000878
:1000300049090008000000004B0900084D090008AC
:10004000372000083720000837200008B91D0008B5
:100050003720000837200008372000083720000824
:100060003720000837200008372000083720000814
:100070003720000837200008372000083720000804
:1000800037200008372000083720000837200008F4
:1000900037200008372000083720000837200008E4
:1000A00037200008372000083720000837200008D4
:1000B00037200008372000083720000837200008C4
:1000C00037200008372000083720000837200008B4
:1000D00037200008931F0008372000083720000849
:1000E0003D1200083720000837200008372000089C
:1000F0003720000837200008372000083720000884
:1001000037200008372000081908000837200008A9
:100110003720000837200008372000083720000863
:100120003720000837200008372000083720000853
:1001300000F002F800F03FF80AA090E8000C8244BA
:100140008344AAF10107DA4501D100F034F8AFF297
:10015000090EBAE80F0013F0010F18BFFB1A43F0A5
:1001600001031847C4430000E4430000103A24BFD1
:1001700078C878C1FAD8520724BF30C830C144BF0C
:1001800004680C607047000000230024002500264E
:10019000103A28BF78C1FBD8520728BF30C148BFEA
:1001A0000B607047642904F0BD80002070471FB5C4
:1001B0001FBD10B510BD04F07BF91146FFF7F7FF26
:1001C00000F01CFB04F099F903B4FFF7F2FF03BC45
:1001D00001F084FE10B501F011FE01F079FE4FF43C
:1001E000165001F08AFE40F2CF2140F2E73001F0D4
:1001F000EFF900F01FFD01F01BFA00F0E1FF01F044
:10020000ADF901F031FB00F093FC00F0E1FEFEA03F
:1002100004F048F810BD002004E00021FE4A11540B
:10022000411CC8B20828F8DB704710B50024002034
:1002300001F00FFA0446012C06D0022C18D0032C32
:1002400010D0042C20D119E001220421F24800F042
:1002500040FD0A220021012000F056FF002000F09E
:1002600091FC12E001220521EB4800F032FD0CE088
:1002700001220621E84800F02CFD06E001220A21B7
:10028000E54800F026FD00E000BF00BF10BD10B53E
:10029000002401F0D4F80446002C76D0622C46D01D
:1002A00017DC302C72D00BDC102C70D003DC4CB37C
:1002B000022C6DD13CE0182C6BD0222CF9D13AE005
:1002C000382C67D0422C76D0522C75D05A2CF0D1D5
:1002D000D8E0A82C5FD00CDC902C5DD004DC682C1E
:1002E0006BD07A2CE5D1B2E0982C67D0A22CE0D16B
:1002F00009E0B02C7DD0C22C1CD0E02C1CD0E22C0C
:10030000D7D116E0D2E0C548007800F0010018B15E
:100310000020C249087002E00120C0490870BF48AF
:10032000007800F00101BEA003F0BCFFBEE0BDE01C
:10033000BCE0BBE0BAE0B9E0BF48007805280ADBC2
:10034000BD480078401EBC490870BC480078401E7B
:10035000BA49087004E00520B7490870B749087029
:10036000B5480178B6A003F09DFFB3480178B948BD
:1003700003F02CF9B0480178B64803F029F9AF48EA
:100380000178B44803F026F990E090E04DE067E092
:100390008BE053E06DE089E0A748007814280EDC7C
:1003A000A5480078401CA4490870A4480078401C67
:1003B000A249087008E06EE076E01BE023E014201C
:1003C0009D4908709D4908709B4801789CA003F0E6
:1003D00069FF994801789F4803F0F8F8964801783A
:1003E0009C4803F0F5F8954801789A4803F0F2F834
:1003F0005CE011E001220321874800F06AFC96A02E
:1004000003F050FF52E002220321834800F061FC18
:1004100095A003F047FF49E0032211467E4800F013
:1004200058FC95A003F03EFF40E0042203217A48E7
:1004300000F04FFC94A003F035FF37E005220321C4
:10044000754800F046FC94A003F02CFF2EE0062235
:100450000321714800F03DFC93A003F023FF25E049
:10046000072203216C4800F034FC93A003F01AFF2C
:100470001CE008220321684800F02BFC92A003F046
:1004800011FF13E009220321634800F022FC92A02F
:1004900003F008FF0AE0002203215F4800F019FC86
:1004A00091A003F0FFFE01E000E000BF00BF0024C8
:1004B00010BD10B500240EE0204601F01DFA8E4953
:1004C00021F81400084630F8142021468BA003F0D0
:1004D000E9FE601CC4B2042CEEDD052407E02046D2
:1004E00001F00AFA844921F81400601CC4B20A2CF5
:1004F000F5DD0B2407E0204601F0FEF97E4921F8E6
:100500001400601CC4B20D2CF5DD0E2407E020465B
:1005100001F0F2F9784921F81400601CC4B2122CE1
:10052000F5DD132407E0204601F0E6F9724921F8D1
:100530001400601CC4B2172CF5DD18240EE0204610
:1005400001F0DAF96C4921F81400084630F814205B
:1005500021466AA003F0A6FE601CC4B21A2CEEDD90
:100560002CA003F09FFE6448408EB0F5FA6F11DDB9
:1005700001202A49C8700522002100F0C5FD002095
:1005800000F000FB0021084600F081FC072001F08C
:1005900010F802E000202149C87010BD70B5002499
:1005A000002500F0D3FD044600F0D8FD05461B48A9
:1005B0008078002824D11948C0780028FAD117483B
:1005C00000790028F6D11548007800F001000028D5
:1005D00017D04948008840F6C411884212DD4648C9
:1005E000408888420EDA4448808888420ADA4248C5
:1005F000C088884206DA40480089884202DA83E0EF
:10060000FBE0F4E084E0000068656C6C6F20776FBD
:10061000726C64210D0A000000000020940000208C
:10062000524F425F436C65616E5F454E5F666C6121
:10063000673D2564300D0A001100002012000020E3
:100640004D5F4D4F56455F73706565643D25640D84
:100650000A000000003401404C45445F434F4445CC
:100660005F310D0A000000004C45445F434F444594
:100670005F320D0A000000004C45445F434F444583
:100680005F330D0A000000004C45445F434F444572
:100690005F340D0A000000004C45445F434F444561
:1006A0005F350D0A000000004C45445F434F444550
:1006B0005F360D0A000000004C45445F434F44453F
:1006C0005F370D0A000000004C45445F434F44452E
:1006D0005F380D0A000000004C45445F434F44451D
:1006E0005F390D0A000000004C45445F434F44450C
:1006F0005F300D0A00000000580000205B25645D9B
:100700003D25642C0000000069A003F0CBFD74E0DF
:100710006B48008840F6C411884213DA6848408864
:1007200088420FDD6648808888420BDA6448C088BA
:10073000884207DA62480089884203DA61A003F040
:10074000B1FD5AE05E48008840F6C411884213DAD1
:100750005B48408888420FDA5948808888420BDD20
:100760005748C088884207DA55480089884203DA2A
:1007700058A003F097FD40E05148008840F6C411AE
:10078000884213DA4E48408888420FDA4C48808805
:1007900088420BDA4A48C088884207DD4848008909
:1007A000884203DA4FA003F07DFD26E0444800882C
:1007B00040F6C411884213DA4148408888420FDA73
:1007C0003F48808888420BDA3D48C088884207DA73
:1007D0003B480089884203DD47A003F063FD0CE03D
:1007E000494802780021084600F08EFC05E04648A2
:1007F00002780021012000F087FC70BDFFF7EAFCC1
:1008000009E0FFF712FDFFF742FDFFF752FEFFF789
:10081000C5FEFFF700FDF4E710B501213B4802F0EB
:1008200004FF002842D00121384802F00FFF384869
:100830000078401C36490870012036490870344859
:1008400000780A280AD1012033490870334800781B
:10085000401C3249087000202D4908702F4800784C
:1008600005280AD101202E4908702E480078401C26
:100870002C4908700020294908702A48007802286D
:100880000AD101202849087028480078401C2749CF
:10089000087000202349087024480078052805D1F5
:1008A00001202349087000202049087010BD000075
:1008B000D7F3B7BDD3D0D5CFB0ADCEEF210D0A0061
:1008C00058000020D7F3C7B0B7BDD3D0D5CFB0AD57
:1008D000CEEF2100C7B0B7BDD3D0D5CFB0ADCEEFEE
:1008E000210D0A00D3D2C7B0B7BDD3D0D5CFB0AD9C
:1008F000CEEF210D0A000000D3D2B7BDD3D0D5CFA3
:10090000B0ADCEEF210D0A0011000020000C004018
:100910000D00002008000020090000200E0000202B
:100920000A0000200F0000200B0000201000002013
:100930000C000020704700BFFEE700BFFEE700BFCD
:10094000FEE700BFFEE77047704770477047000042
:100950000CB50020019000906C48006840F4803095
:100960006A49086000BF6948006800F400300090E0
:100970000198401C0190009818B90198B0F5A06F3B
:10098000F1D16248006800F4003010B101200090FD
:1009900001E0002000900098012843D15C480068E5
:1009A00040F010005A4908600846006820F0030033
:1009B00008600846006840F002000860534840683C
:1009C000524948600846406848600846406840F41C
:1009D000806048600846406820F47C104860084603
:1009E000406840F4E81048600846006840F08070B5
:1009F000086000BF4548006800F000700028F9D08A
:100A00004248406820F0030040494860084640687A
:100A100040F00200486000BF3C48406800F00C0015
:100A20000828F9D10CBD10B5FFF792FF10BD10B525
:100A30003648006840F001003449086008464068C4
:100A40003449084031494860084600683249084046
:100A50002E4908600846006820F480200860084697
:100A6000406820F4FE0048604FF41F008860FFF7E4
:100A7000DAFF4FF000602949086010BD10B5002171
:100A800000200022214B5B6803F00C0121B10429F6
:100A900006D0082928D107E0214B224C236027E00B
:100AA0001F4B204C236023E0184B5B6803F470104D
:100AB000164B5B6803F48032022303EB904022B9AB
:100AC000194B4343174C23600DE0104B5B6803F454
:100AD000003323B1144B4343124C236003E0104B0B
:100AE0004343104C236003E00D4B0E4C236000BFCA
:100AF00000BF064B5B68C3F303130C4CE15C094B6E
:100B00001B68CB40074C236010BD00000010024062
:100B1000002002400000FFF8FFFFF6FE08ED00E0B5
:100B200000127A001400002000093D001800002087
:100B300008B50121402001F01BFE2020ADF8000087
:100B400010208DF8030003208DF802006946154837
:100B500001F052FB2021134801F0FDFB4FF400602F
:100B6000ADF8000010208DF8030003208DF802007E
:100B700069460C4801F040FB4FF40061094801F060
:100B8000EAFB08BD30B10121074A1160074AC2F8EB
:100B9000AC1105E00021044A1160044AC2F8AC110E
:100BA00070470000001801409401234200002342D6
:100BB000002114E000F001021AB101228A4B1A60F0
:100BC00002E00022884B1A600022874B1B1D1A602E
:100BD0000122864BC3F8A42140104A1CD1B2082937
:100BE000E8DB704710B5044600207F4908310860F3
:100BF0002046FFF7DDFF01207C49C1F8A80110BDA8
:100C000030B505460020784908310860C020FFF75C
:100C1000CFFF002407E0285DFFF7CAFF0020FFF7A1
:100C2000C7FF601CC4B2082CF5DB01206E490831F7
:100C3000086030BD0EB56EA103C9CDE901010121E7
:100C4000202001F095FD4FF48070ADF800001420D5
:100C50008DF8030003208DF802006946664801F014
:100C6000CBFA4FF48071644801F075FB4FF40070CB
:100C7000ADF8000014208DF8030003208DF8020069
:100C800069465D4801F0B8FA4FF400715A4801F026
:100C900062FB4FF48060ADF8000014208DF8030073
:100CA00003208DF802006946534801F0A5FA4FF47D
:100CB0008061514801F04FFB0320FFF793FF402074
:100CC000FFF790FF01A8FFF79BFF8F20FFF78AFF38
:100CD0000EBDFEB504460D461646002747A207CABC
:100CE0008DE8070005F0010040B905F0020028B9C1
:100CF00005F0030010B905F0070030B11DF806003B
:100D000060552046FFF77CFF6CE005F0040078B9E1
:100D100005F0050060B905F0060048B905F00800C7
:100D200030B905F0090018B905F00A0000284CD0C8
:100D3000281F072847D2DFE800F0040F1A462530A5
:100D40003B0026B1207940F0E000207103E02079DB
:100D500020F0E000207137E026B1207940F00E004D
:100D6000207103E0207920F00E0020712CE026B1E4
:100D7000A07940F01E00A07103E0A07920F01E00D1
:100D8000A07121E026B1A07940F00E00A07103E02F
:100D9000A07920F00E00A07116E026B1607940F035
:100DA000E000607103E0607920F0E00060710BE02A
:100DB00026B1607940F0F000607103E0607920F0C6
:100DC000F000607100E000BF0CE005F00B0028B9F6
:100DD00005F00C0010B905F00D0018B10B2D00D175
:100DE00000BF00BFFEBD0000A08122420080224261
:100DF00000000000FFFFFF0000140140FD60DAF377
:100E000067B7BFE0FFE7000000B589B001214803E4
:100E100001F0BBFC0121102001F0AAFC4020ADF83C
:100E2000200018208DF8230003208DF8220008A947
:100E30001E4801F0E1F94FF47A70ADF81800472030
:100E4000ADF814000020ADF81A00ADF8160005A9A1
:100E5000174801F0C5FD6020ADF804000120ADF891
:100E600006000020ADF80C0001A9114801F0F5FDC5
:100E700008210F4802F040FA4FF4FA710C4802F0D2
:100E8000A3FB01210A4802F007F909B000BD70B5C3
:100E900004460D4624B12946054802F095FB03E0BF
:100EA0000021034802F090FB70BD000000100140DB
:100EB0000034014030B589B005460C460121480395
:100EC00001F056FC0121112001F052FC4FF4C070DA
:100ED000ADF804001C208DF8070003208DF80600F3
:100EE00001A9A24801F088F9ADF81C50ADF81840EE
:100EF0000020ADF81E00ADF81A0006A99C4801F0CC
:100F00006FFD7020ADF808000120ADF80A00002048
:100F1000ADF8100002A9964801F0E1FD02A994483D
:100F200001F02AFE0821924802F0EFF908219048CA
:100F300002F0F8F901218E4802F0AEF801218C4848
:100F400002F0B6F809B030BD08B50121062001F065
:100F50001CFC0121212001F00BFC0120ADF8000058
:100F600048208DF8030001208DF802006946814871
:100F700001F042F900234FF4004219467E4802F086
:100F800022F9002247217C4802F02DF901217A48FC
:100F900002F082F80420ADF8000048208DF803002C
:100FA00001208DF802006946744801F025F90023FC
:100FB0004FF400421946724802F005F90022472119
:100FC0006F4802F010F901216D4802F065F808BD84
:100FD00008B50121402001F0CBFB0220ADF8000054
:100FE00014208DF8030003208DF802006946614843
:100FF00001F002F902215F4801F0ADF90420ADF8DB
:10100000000014208DF8030003208DF802006946CB
:10101000584801F0F1F80421564801F09AF94FF4CC
:101020000070ADF8000014208DF8030003208DF847
:10103000020069464F4801F0DFF84FF400714D4857
:1010400001F089F94FF48060ADF8000014208DF8AC
:10105000030003208DF802006946464801F0CCF8F1
:101060004FF48061434801F074F947211920FFF7DC
:1010700021FF05213E4802F0A9FA05213C4802F073
:10108000A7FAFFF761FF08BD00203E4908603E490E
:10109000C1F8A4013B49091D08603B49C1F8A801FA
:1010A00070470120374908603749C1F8A401002082
:1010B0003449091D08603449C1F8A801704700206F
:1010C0003049086001203049C1F8A40100202D49B1
:1010D000091D08602C49C1F8A80170470120294961
:1010E000086000202849C1F8A4012649091D0860AC
:1010F0002549C1F8A801704701202249091D08604F
:101100002149C1F8A801704770B506460C4615463E
:101110002946174802F05AFA2946154802F058FAAB
:1011200016B1FFF7E9FF10E0012C02D1FFF7B9FF7C
:101130000BE0022C02D1FFF7C2FF06E0032C02D124
:10114000FFF7CCFF01E0FFF79FFF70BD10B5002453
:10115000094802F058FA0446204610BD10B5002494
:10116000074802F050FA0446204610BD0010014026
:101170000034014000180140000800400014014004
:101180000004004084012342000023423EB505468E
:101190000C460121084601F0F8FAADF80450ADF80C
:1011A00000400020ADF80600ADF8020069464FF09F
:1011B000804001F015FC0121880701F06DFF3EBD64
:1011C0001FB547214FF6FF70FFF7E0FF01210846EA
:1011D00001F0CEFA0121202001F0CAFA0B210320F0
:1011E00001F020F94FF40060ADF8000001208DF807
:1011F000020048208DF803006946AC4800F0FCFF6F
:101200004FF40060029000208DF80C0008208DF84B
:101210000D0001208DF80E0002A802F055FE2820D6
:101220008DF8040002208DF805008DF806000120DD
:101230008DF8070001A800F016FF1FBD10B50120B2
:101240009B4908709B48006820F400609949086039
:1012500099480078202833D1800102F08CFEF8B143
:101260009648007800F08000D0B19448007820F0D3
:101270001000924908700846007800F00F0020B96D
:101280000846007840F0400008708C48007800F074
:101290000F000E2805DA89480078401C874908703D
:1012A0000AE08648007820F08000844908700846EB
:1012B000007800F0F000087000207F490870AFE06F
:1012C0004FF4006002F057FE0028F8D07C48006818
:1012D000E8B100214FF0804002F072F90121880747
:1012E00001F0DAFE73480C30006840F40060714988
:1012F0000C310860081F006820F40060091F0860B6
:101300006E48007840F010006C49087088E04FF09B
:101310008040808C6B49088000214FF0804001F0B4
:10132000BBFE64480C30006820F4006061490C3159
:101330000860081F006840F40060091F08605F48EB
:10134000007800F01000002864D05C48007800F0BD
:101350008000002849D05B480088B0F5967F12DDF8
:1013600058480088B0F5487F0DDA574800684000BB
:10137000554908600846006808604F480078401CDE
:101380004D49087046E04F480088B0F5AF6F14DD56
:101390004C480088B0F5E16F0FDA4B480068400018
:1013A000494908600846006840F00100086042486A
:1013B0000078401C404908702CE04248008840F604
:1013C0009801884226DD3F48008840F6282188425F
:1013D00020DA3E480078401C3C49087037480078C5
:1013E00000F0F0003549087014E03648008841F2FA
:1013F000680188420EDD3348008841F25C21884252
:1014000008DA2E48007840F080002C49087000204F
:101410002E4908702948007820F0100027490870EC
:101420002448006840F400602249086021481430D4
:10143000006840F400601F491431086010BD10B509
:1014400000201B4B1B7873B31C4B1B7803F040032D
:101450002BB31D4B1B68190E1B4B1B68C3F30742B4
:10146000D343DBB28B420BD151B9174B1B88C3F36B
:101470000721154B1A78D343DBB28B4200D10846C3
:1014800020B10E4B1B7803F0800343B90B4B1B7844
:1014900023F04003094C237000230C4C23700023DD
:1014A000034C237001E0FFE7002010BD0014014051
:1014B00032000020000401403100002028000020FC
:1014C0002C8122422A0000202C0000203000002025
:1014D00070B5044600203B490860052000F0CBFCB5
:1014E00001203949C1F88C013C2000F0C4FC0020E7
:1014F0003449091D0860052000F0BDFC002526E0E8
:1015000004F0010080B101202E49091D08604FF44C
:10151000617000F08CFC00202B49C1F890014FF461
:10152000967000F084FC0FE001202649091D086038
:101530004FF4967000F07BFC00202349C1F8900125
:101540004FF4617000F073FC6410681CC5B2082D84
:10155000D6DB01201B49091D086070BD08B50121BB
:10156000402001F005F90820ADF8000010208DF8AA
:10157000030003208DF802006946144800F03CFE89
:101580000821124800F0E5FE1020ADF80000694681
:101590000E4800F031FE10210C4800F0DAFEE32086
:1015A000FFF796FF142000F066FCF120FFF790FF94
:1015B00008BD10B50446F320FFF78AFF2046FFF769
:1015C00087FF10BD8C012342000023420018014018
:1015D0007FB505460C460121082001F0D6F8ADF88C
:1015E0000850ADF804400020ADF80A00ADF8060040
:1015F00001A90E4801F0F4F9012211460B4801F04F
:1016000066FD32208DF8000000208DF801000320D7
:101610008DF8020001208DF80300684600F023FDDC
:101620000121024801F038FD7FBD0000000C0040A0
:1016300008B50121082001F09BF84FF4F070ADF8D7
:10164000000048208DF803006946264800F0D4FDCC
:1016500008BD014611B10120234A107022480078CC
:1016600040B32248006858B12048001D006838B1D6
:101670001E480830006818B11C480C300068C8B912
:101680000020194A10701948006808B901207047F5
:101690001648001D006808B90220F8E71348083012
:1016A000006808B90320F2E710480C300068B0B9B0
:1016B0000420ECE70D480068012810D10B48001DFC
:1016C000006801280BD1094808300068012806D1BC
:1016D00006480C300068012801D1034A1070002030
:1016E000D5E70000000C01403300002014812142A6
:1016F00010B50446072301222146D64802F06DFAB0
:101700000121D44802F03DFA00BF0221D14802F085
:10171000A9FB0028F9D0CF4802F0C6FA10BD2DE988
:10172000F04107460C460025002608E03846FFF742
:10173000DFFF0544052000F09EFB701CC6B2A642E8
:10174000F4DBB5FBF4F080B2BDE8F08130B589B0D0
:1017500005460C460121480301F017F8012111202C
:1017600001F006F84FF40070ADF8040018208DF871
:10177000070003208DF8060001A9B74800F03CFDE2
:10178000ADF81C50ADF818400020ADF81E00ADF8C3
:101790001A0006A9B14801F023F97020ADF808003D
:1017A0000120ADF80A000020ADF8100002A9AB48F6
:1017B00001F02DFA0821A94801F0BDFD0121A7483B
:1017C00001F06AFC0121A54801F072FC09B030BDAE
:1017D00000B587B001214FF4057000F0C9FF4FF448
:1017E000004000F029FFF820ADF8040000208DF83B
:1017F000070001A99A4800F0FFFC3120ADF8040071
:1018000000208DF8070001A9934800F0F5FC9148ED
:1018100002F024F9002002908DF80C008DF80D00E4
:101820004FF4602004900020059001208DF81800EE
:1018300002A9884802F039F90121864802F061F9CD
:10184000844802F080F900BF824802F081F9002844
:10185000FAD1804802F086F900BF7E4802F087F98D
:101860000028FAD107B000BD08B501217C2000F0A6
:101870007FFF0620ADF8000048208DF80300694680
:10188000774800F0B9FC4FF44040ADF80000482024
:101890008DF803006946734800F0AEFC4FF4A05089
:1018A000ADF8000048208DF8030069466A4800F052
:1018B000A3FC4FF2F800ADF8000048208DF80300BB
:1018C0006946694800F098FC4FF47040ADF800009C
:1018D00048208DF803006946644800F08DFCFFF74E
:1018E00077FF47214FF47A70FFF730FF4FF4FA711A
:1018F0005A4801F06FFE08BD70B505461B2D70D229
:10190000DFE805F00E13181D22272C31363C424823
:101910004D52585E636970767C82888E94999E00E1
:101920000620FFF7E5FE044691E00320FFF7E0FE06
:1019300004468CE00420FFF7DBFE044687E0072026
:10194000FFF7D6FE044682E00520FFF7D1FE0446ED
:101950007DE04748006800F0010478E044480068F2
:1019600000F0010473E04348006800F001046EE0F9
:101970004048001D006800F0010468E03D480C305C
:10198000006800F0010462E03A480830006800F0A6
:1019900001045CE03848006800F0010457E0374873
:1019A000006800F0010452E034480838006800F094
:1019B00001044CE03048001D006800F0010446E0DE
:1019C0002F48006800F0010441E02D480838006805
:1019D00000F001043BE02A48001F006800F0010409
:1019E00035E032E026480C38006800F001042EE0B3
:1019F00023483038006800F0010428E020482C38E3
:101A0000006800F0010422E01D482838006800F05A
:101A100001041CE01A482438006800F0010416E0B4
:101A200017482038006800F0010410E00F20FFF78D
:101A30005FFE04460BE00E20FFF75AFE044606E068
:101A40000A20FFF755FE044601E0002400BF00BF56
:101A5000204670BD002401400010014000340140C8
:101A600000080140000C0140001401400018014032
:101A700038812142300123420401214230012242B7
:101A80003C81224208B503208DF8000000208DF82B
:101A900001008DF8020001208DF80300684600F077
:101AA000E2FA08BDF0B503460C461546642093FBE8
:101AB000F0F0C6B2642093FBF0F700FB1730C1B220
:101AC000132E02DD01F16400C1B20846CF1701EB0D
:101AD000977701EBA707BAB2072092FBF0F700FB5C
:101AE000172082B25719601EDFF8F4C21CF80000FC
:101AF000384482B2CF1701EB9777BF10A1EB87076D
:101B00001FB9032C01DA501E82B2072092FBF0F7B6
:101B100000FB1720C0B2F0BD0146CA1701EB92725C
:101B20009210A1EB820292B9642091FBF0F200FBCB
:101B3000121050B94FF4C87091FBF0F200FB121074
:101B400008B9012070470020FCE70120FAE70020D7
:101B5000F8E770B500260024002502F055FA064685
:101B6000A048B6FBF0F4A0480088A0423CD09E49B3
:101B70000C8040F2B27510E02846FFF7CDFF40B16F
:101B8000B4F5B77F02D3A4F5B77404E0681C85B23E
:101B900006E0A4F26D14681C85B2B4F5B67FEBD8EC
:101BA00000BF92488580002516E090498888FFF79D
:101BB000B3FF30B1012D04D11D2C01D31D3C09E030
:101BC0000CE08B48405DA04203D88948405D241A50
:101BD00000E003E0681C85B21C2CE6D200BF681C44
:101BE00082498871601CC8717E48B6FBF0F100FB29
:101BF00011644FF46160B4FBF0F07C4908704FF45D
:101C00006160B4FBF0F100FB11403C21B0FBF1F04E
:101C1000764948704FF46160B4FBF0F100FB11406D
:101C20003C21B0FBF1F201FB1200704988700B46B9
:101C3000DA7999799888FFF735FF6C4908720020A6
:101C400070BD2DE9F05F06460F4690469946DDE9E6
:101C50000AAB002440F2B270864203DB40F6330048
:101C6000864202DD0120BDE8F09F40F2B2750AE035
:101C70002846FFF751FF10B15E48044401E05E487A
:101C80000444681C85B2B542F2DB781EC7B2002559
:101C900010E05748405D40F2A321484304EBC014D4
:101CA0003046FFF739FF18B1012D01D14D480444EA
:101CB000681C85B2BD42ECDBA8F1010040F2A32113
:101CC000484304EBC014C9EB4910C0EB092004EBF6
:101CD0000014CAEB0A1004EB80045C4401214FF0AD
:101CE000C05000F052FD012002F01DFA204602F023
:101CF00094F902F0C5F90020B5E71CB500240420D2
:101D000002F0A1FA45F25001884247D001214FF07C
:101D1000C05000F03AFD012002F005FA02F05EFA30
:101D2000012000F092FC04E0601CC4B20A2000F024
:101D3000A2F8412000F0F1FB0028F5D0FA2C01DBDD
:101D400001201CBD4FF4807000F09BFC012000F0CE
:101D50009EFC02F095F902F09CF90121084602F080
:101D600033F902F08DF902F03CF947F6FF7002F00A
:101D700061F902F085F9372000210A230222CDE91A
:101D800000100C2140F2D970FFF75BFF02F032F92E
:101D900045F25001042002F04AFA07E002F079F916
:101DA0000121084602F010F902F06AF9FFF76AFE15
:101DB000FFF7CFFE0020C4E710B5012002F08EF936
:101DC00008B1FFF7C6FE022002F088F910B1022028
:101DD00002F094F9052002F091F902F051F910BDDA
:101DE000104500088051010034000020A0000020B0
:101DF0001C4500080085E2018033E10110B56FF059
:101E0000040000F07AF92E4800682E49B0FBF1F08A
:101E10002D4908700846007800EB4001C1EBC01066
:101E20004FF6FF7101EAC0002849088010BD014645
:101E3000254A12784A434FF0E0235A6100229A6102
:101E40001A46126942F001021A6100BF4FF0E02207
:101E5000106900F001021AB100F48032002AF5D0B6
:101E60004FF0E022126922F001024FF0E0231A61E4
:101E700000229A6170470146144A12884A434FF083
:101E8000E0235A6100229A611A46126942F0010267
:101E90001A6100BF4FF0E022106900F001021AB190
:101EA00000F48032002AF5D04FF0E022126922F0CF
:101EB00001024FF0E0231A6100229A61704700008E
:101EC0001400002000127A003600002038000020A4
:101ED00010B54FF4A06000F0C1F810BD014600BF7E
:101EE000704700BF494A128802F04002002AF9D028
:101EF000C2B2464B1B1D1A80704710B586B004460F
:101F0000012144F2040000F033FC4FF40070ADF8FE
:101F1000140003208DF8160018208DF8170005A96D
:101F20003B4800F069F94FF48060ADF814000420DC
:101F30008DF8170005A9364800F05EF925208DF8C8
:101F4000000003208DF801008DF8020001208DF8BB
:101F50000300684600F087F801940020ADF80800FF
:101F6000ADF80A00ADF80C00ADF810000C20ADF88B
:101F70000E0001A9254801F0B0FB012240F22551D5
:101F8000224801F042FC0121204801F032FC06B059
:101F900010BD10B540F225511C4801F01BFD10B3D7
:101FA0001A4801F097FCC4B21A48008800F40040B7
:101FB000C8B91848008800F4804060B10A2C03D0EA
:101FC00000201449088020E01248008840F40040B6
:101FD0001049088019E00D2C06D10E48008840F405
:101FE00080400C49088010E00A480088C0F30D00CA
:101FF00009490C5407480088401C064908800846D7
:102000000088C72801DD0020088010BD003801408D
:102010000008014040000020AA0000200948804735
:1020200009480047FEE7FEE7FEE7FEE7FEE7FEE7BA
:10203000FEE7FEE7FEE7FEE704480549054A064BD2
:10204000704700002F0A000831010008D801002065
:10205000D8070020D8030020D803002031490143CD
:10206000314A1160704770B5002100230F22C478F7
:1020700004B32D4C246804F4E064C4F5E064210A40
:10208000C1F10403CA40447804FA03F1847814408F
:1020900021430901254C0678A155047804F01F0559
:1020A0000124AC4005786D11AD0005F1E025C5F8BF
:1020B000004109E0047804F01F050124AC401C4DE8
:1020C0000678761145F8264070BD1A4A0A40024348
:1020D000154B1B1F1A60704739B1134A121D126845
:1020E0000243114B1B1D1A6006E00F4A121D1268B5
:1020F00082430D4B1B1D1A607047042808D14FF016
:10210000E021096941F004014FF0E022116107E08C
:102110004FF0E021096921F004014FF0E022116144
:10212000704700000000FA050CED00E000E400E05C
:1021300080E100E080FFFF1F10B50446CC488442D8
:1021400008D10121042000F02DFB0021042000F023
:1021500029FB46E0C748844208D10121082000F04D
:1021600021FB0021082000F01DFB3AE0C248844218
:1021700008D10121102000F015FB0021102000F0F3
:1021800011FB2EE0BD48844208D10121202000F03F
:1021900009FB0021202000F005FB22E0B848844222
:1021A00008D10121402000F0FDFA0021402000F07C
:1021B000F9FA16E0B348844208D10121802000F0EA
:1021C000F1FA0021802000F0EDFA0AE0AE488442E6
:1021D00007D10121801500F0E5FA0021A01500F0DB
:1021E000E1FA10BD10B50121084600F0DBFA00212C
:1021F000012000F0D7FA10BD2DE9F041024600257C
:102200000026002000230024002791F803C00CF0D2
:102210000F0591F803C00CF0100CBCF1000F03D0B7
:1022200091F802C04CEA050591F800C0BCF1000F1E
:1022300031D0146800202BE04FF0010C0CFA00F3B1
:10224000B1F800C00CEA03069E4220D183004FF093
:102250000F0C0CFA03F7BC4305FA03FC4CEA040428
:1022600091F803C0BCF1280F06D14FF0010C0CFA15
:1022700000FCC2F814C00AE091F803C0BCF1480F9A
:1022800005D14FF0010C0CFA00FCC2F810C0401C44
:102290000828D1D31460B1F800C0BCF1FF0F34DDC1
:1022A000546800202EE000F1080C4FF0010808FAF5
:1022B0000CF3B1F800C00CEA03069E4221D1830062
:1022C0004FF00F0C0CFA03F7BC4305FA03FC4CEA81
:1022D000040491F803C0BCF1280F05D100F1080CEB
:1022E00008FA0CF8C2F8148091F803C0BCF1480F4A
:1022F00007D100F1080C4FF0010808FA0CF8C2F8F9
:102300001080401C0828CED35460BDE8F0814FF601
:10231000FF710180022181700421C1707047024663
:10232000002093680B400BB1012000E000207047B3
:102330000146886880B2704702460020D3680B408F
:102340000BB1012000E0002070470146C86880B250
:10235000704701617047416170470AB1016100E057
:1023600041617047C16070474FF480320A43826117
:102370008161826182698269704702460020434B15
:1023800018684FF68073184040EA021008433F4B2C
:10239000186070473E49C8617047F0B50A4600238F
:1023A00000240021002500F00046B6F1004F02D1C4
:1023B000364EF16901E0354E7168C0F3034583B2D2
:1023C00000F44016B6F5401F08D121F070612F4E81
:1023D000766826F070662D4F7E6012E000F480165D
:1023E000B6F5801F06D1032606FA05F4A14341F095
:1023F000706106E0460D360103FA06F6B14341F07E
:10240000706122B1460D360103FA06F6314300F041
:102410000046B6F1004F02D11C4EF16101E01B4EA7
:102420007160F0BD30B500228B071C0F0F2303FA3B
:1024300004F2164B08338C1053F824309343134C9A
:1024400008348D1044F8253023468C1053F824307E
:102450008C07240F00FA04F423430C4C08348D102D
:1024600044F8253030BD0A49DC310860704700006F
:1024700000080140000C0140001001400014014020
:1024800000180140001C01400020014000000140F4
:1024900000002042DF48006840F00100DD4908608C
:1024A00008464068DC490840DA4948600846006848
:1024B000DA490840D74908600846006820F48020BF
:1024C00008600846406820F4FE0048604FF41F0092
:1024D00088607047CF49096821F48031CD4A116086
:1024E0001146096821F480211160B0F5803F03D0C6
:1024F000B0F5802F0ED106E0C649096841F480315D
:10250000C44A116007E0C349096841F4A021C14AE7
:10251000116000E000BF00BF704710B50146002207
:10252000002300204A11012A02D1BA4C236806E098
:10253000022A02D1B74C236A01E0B64C636A01F06B
:102540001F02012494401C400CB1012000E0002037
:1025500010BD38B5002000900024002500BF3120B8
:10256000FFF7DBFF05460098401C00900098B0F58F
:10257000A06F01D0002DF2D03120FFF7CEFF08B1BF
:10258000012400E00024204638BD01460020A14A75
:10259000106820F0F80040EAC10010607047A049C0
:1025A00008607047024600209A4B586820F47C105F
:1025B00042EA01031843974B5860704798490866F0
:1025C000704701460020934A506820F003000843FA
:1025D000506070478F48406800F00C00704701461B
:1025E00000208C4A506820F0F0000843506070478B
:1025F00001460020874A506820F4E060084350609C
:10260000704701460020834A506820F4605040EA39
:10261000C1005060704729B17E4A527A02437D4B17
:102620005A7204E07B4A527A82437A4B5A7270475C
:102630007B49D8310860704701460020754A5068D0
:1026400020F440400843506070470021714A203216
:102650001170704A82F82010012802D004280AD193
:1026600004E001216B4A2032117005E00521694A1E
:102670002032117000E000BF00BF70476949086058
:1026800070476449096A0143624A116270476549AB
:1026900044390860704730B500210022002400232F
:1026A0005C4D6D6805F00C0121B1042905D00829A5
:1026B00023D105E05C4D056022E05B4D05601FE025
:1026C000544D6D6805F47012524D6D6805F48034F8
:1026D000022505EB92421CB9544D554305600BE0B1
:1026E0004C4D6D6805F400351DB1504D55430560E6
:1026F00002E04D4D5543056002E04B4D056000BFC3
:1027000000BF444D6D6805F0F0010909484D6B5C50
:102710000568DD4045603F4D6D6805F4E061090ADC
:10272000434D6B5C4568DD4085603A4D6D6805F44E
:102730006051C90A3E4D6B5C4568DD40C560354D52
:102740006D6805F44041890B3A4D6B5CC568B5FB7B
:10275000F3F5056130BD29B12E4A526902432D4B74
:102760005A6104E02B4A526982432A4B5A617047EE
:1027700029B1284A92690243264B9A6104E0254A0E
:1027800092698243234B9A61704729B1214AD269E9
:102790000243204BDA6104E01E4AD26982431D4B9A
:1027A000DA61704729B11B4AD2680243194BDA60DB
:1027B00004E0184AD2688243164BDA60704729B1A8
:1027C000144A12690243134B1A6104E0114A126958
:1027D0008243104B1A6170471249403908607047B4
:1027E0000F49C86470470B49C87170470948406A6F
:1027F00040F0807007494862704701460020054A52
:1028000092680A400AB1012000E0002070470149A7
:1028100088727047001002400000FFF8FFFFF6FECC
:10282000000042428004424200127A0000093D004A
:10283000420000205200002010B50446FE488442A9
:1028400008D10121C014FFF7ADFF0021E014FFF70C
:10285000A9FFC4E0B4F1804F08D101210846FFF779
:10286000AEFF00210120FFF7AAFFB8E0F348844241
:1028700008D101210220FFF7A2FF00210220FFF76B
:102880009EFFACE0EE48844208D101210420FFF70E
:1028900096FF00210420FFF792FFA0E0E948844260
:1028A00008D101210820FFF78AFF00210820FFF747
:1028B00086FF94E0E448844208D101211020FFF70C
:1028C0007EFF00211020FFF77AFF88E0DF48844276
:1028D00008D101212020FFF772FF00212020FFF7FF
:1028E0006EFF7CE0DA48844208D101214014FFF7F2
:1028F00059FF00216014FFF755FF70E0D54884426E
:1029000009D10121C804FFF74DFF00214FF4002039
:10291000FFF748FF63E0D048844209D10121080550
:10292000FFF740FF00214FF48010FFF73BFF56E018
:10293000CA48844209D101214805FFF733FF00212D
:102940004FF40010FFF72EFF49E0C548844208D13C
:1029500001214020FFF733FF00214020FFF72FFF28
:102960003DE0C048844208D101218020FFF727FFC5
:1029700000218020FFF723FF31E0BB48844208D1CB
:1029800001218015FFF71BFF0021A015FFF717FF9E
:1029900025E0B648844209D101210804FFF702FF6F
:1029A00000214FF48030FFF7FDFE18E0B04884426C
:1029B00009D101214804FFF7F5FE00214FF4003052
:1029C000FFF7F0FE0BE0AB48844208D101218804F8
:1029D000FFF7E8FE00214FF48020FFF7E3FE10BD73
:1029E00000220288944B98420ED0994B98420BD00B
:1029F000B0F1804F08D0914B984205D0904B98424F
:102A000002D0904B984204D14FF68F731A404B88F6
:102A10001A438D4B984207D08C4B984204D04FF606
:102A2000FF431A40CB881A4302808B8883850B882A
:102A30000385814B98420BD0854B984208D08B4B35
:102A4000984205D08A4B984202D08A4B984201D1D5
:102A50000B7A038601238382704770B5002400221D
:102A60000023058C4FF6FE7635400584028C838862
:102A7000048B4FF68F752C40B51E2C400D882C43CF
:102A8000751E2A400D892A434D882A436A4DA84263
:102A90000BD06F4DA84208D0744DA84205D0744D9C
:102AA000A84202D0734DA84213D14FF6F7752A40C1
:102AB0004D892A434FF6FB752A408D882A434FF6ED
:102AC000FF652B404FF6FF552B408D892B43CD8959
:102AD0002B4383800483CD888586028470BD70B5C6
:102AE000002400220023058C4FF6EF763540058444
:102AF000028C8388048B48F6FF752C404FF6FF4507
:102B00002C400D884FF6FF7606EA05252C434FF63C
:102B1000DF752A400D8906EA05152A434D8806EA25
:102B200005152A43444DA84202D0494DA8421DD163
:102B30004FF67F752A404D894FF6FF7606EA051558
:102B40002A434FF6BF752A408D8806EA05152A43A9
:102B50004FF6FF352B404FF2FF752B408D8906EA6B
:102B600085052B43CD8906EA85052B4383800483A5
:102B7000CD880587028470BD70B500240022002333
:102B8000058C4FF6FF6635400584028C8388848B64
:102B90004FF68F752C404FF6FC752C400D882C435A
:102BA0004FF6FF552A400D894FF6FF7606EA0525B8
:102BB0002A434D8806EA05252A431F4DA84202D024
:102BC000234DA8421DD14FF2FF752A404D894FF683
:102BD000FF7606EA05252A434FF6FF352A408D8801
:102BE00006EA05252A434EF6FF752B404DF6FF7584
:102BF0002B408D8906EA05152B43CD8906EA05157C
:102C00002B4383808483CD888587028470BD70B513
:102C1000002200230024058C4EF6FF763540058403
:102C2000038C8488828B48F6FF752A404FF6FF4557
:102C30002A400D8820E00000002C014000040040E4
:102C400000080040000C004000100040001400404C
:102C500000340140004C014000500140005401404C
:102C600000180040001C00400020004000400140CF
:102C700000440140004801404FF6FF7606EA052572
:102C80002A434DF6FF752B400D8906EA05352B4387
:102C90004D8806EA05352B43FA4DA84202D0FA4D7D
:102CA000A84208D14BF6FF752C408D894FF6FF7670
:102CB00006EA85152C4384808283CD88A0F8405095
:102CC000038470BD828B4FF2FF331A408283828B64
:102CD0004FF6FF7303EA01231A4382837047F0B56E
:102CE0000C461546002200210026078C4EF6FF7C7C
:102CF00007EA0C070784828B018C4FF6FF7707EAFF
:102D0000043640F6FF473A404FF6FF7707EA0527BB
:102D10003A434FF6FF7707EA03373A43D94FB842B1
:102D20000ED0D94FB8420BD0B0F1804F08D0D74F5A
:102D3000B84205D0D64FB84202D0D64FB84206D1DD
:102D40004DF6FF77394046F48057394305E047F6A2
:102D5000FF57394044F48057394382830184F0BDE2
:102D6000828B4FF6F3731A408283828B0A438283ED
:102D70007047F0B50C461546002200210026078C4E
:102D80004FF6FF6C07EA0C070784828B018C4FF625
:102D9000FF7707EA04264FF60C773A404FF6FF77A5
:102DA00007EA03172F433A43B64FB8420ED0B64F47
:102DB000B8420BD0B0F1804F08D0B44FB84205D024
:102DC000B34FB84202D0B34FB84206D14FF6FF57C7
:102DD000394046F48077394305E04FF2FF573940D8
:102DE00044F48077394382830184F0BD028B4FF233
:102DF000FF331A400283028B4FF6FF7303EA01236D
:102E00001A4302837047F0B50C4615460022002194
:102E10000026078C4FF6EF7C07EA0C070784028B2D
:102E2000018C4FF6FF7707EA041640F6FF473A4059
:102E30004FF6FF7707EA03373A434FF6FF7707EA83
:102E400005273A438F4FB8420ED08F4FB8420BD070
:102E5000B0F1804F08D08D4FB84205D08C4FB842AA
:102E600002D08C4FB84206D14FF6DF77394046F09A
:102E70001007394305E04FF65F77394044F01007FB
:102E8000394302830184F0BD028B4FF6F3731A407D
:102E90000283028B0A4302837047F0B50C46154645
:102EA00000220021068C4FF6FE773E400684028BFE
:102EB000018C4FF60C7632407E1C06EA03162E4338
:102EC0003243704EB0420ED06F4EB0420BD0B0F1D4
:102ED000804F08D06D4EB04205D06D4EB04202D04A
:102EE0006C4EB04206D14FF6FD76314044F00106FB
:102EF000314305E04FF6F576314044F001063143A9
:102F000002830184F0BD70B505460C465D488542DC
:102F10000ED05D4885420BD0B5F1804F08D05B489C
:102F2000854205D05A48854202D05A48854200D190
:102F300000E000BF208850B92389A2886188284614
:102F4000FFF7ABFFE1882846FFF79EFF25E02088CA
:102F500004280AD12389A28861882846FFF753FFF5
:102F6000E1882846FFF742FF17E0208808280AD1A9
:102F70002389A28861882846FFF7FBFEE18828465E
:102F8000FFF7EEFE09E02389A28861882846FFF753
:102F9000A6FEE1882846FFF795FE70BD2DE9F041B9
:102FA00005460C4600260127608808B9022600E085
:102FB0000026A088012801D1022700E001272088EF
:102FC000A0B92389A28861882846FFF766FFE188B7
:102FD0002846FFF759FF23893A4631462846FFF72E
:102FE00012FFE1882846FFF701FF13E02389A2883A
:102FF00061882846FFF707FFE1882846FFF7F6FEBD
:1030000023893A4631462846FFF747FFE18828469C
:10301000FFF73AFFBDE8F0810A884B881A438B8896
:103020001A43CB881A430B891A434B891A438B895D
:103030001A43A0F8442070474FF6FF7181800021A9
:103040000180C18041800172704700210180418070
:103050008180C180018141818181C18170470021CE
:1030600001804180012181800021C1800181704760
:103070000021018041808180C18001814181818165
:1030800070470000002C0140003401400004004063
:1030900000080040000C004021B1028842F001020B
:1030A000028004E002884FF6FE731A4002807047E7
:1030B00031B1B0F8442042F40042A0F8442005E0C9
:1030C000B0F84420C2F30E02A0F8442070471AB1B1
:1030D00083890B43838102E083898B43838170471B
:1030E0008182704741EA0203A0F8483070471AB164
:1030F00083890B43838102E083898B4383817047FB
:1031000001894FF6F8721140018170470A4600218B
:1031100001894FF68F73194011430181704730B513
:1031200004460D4629462046FFF7F0FF208940F06F
:103130000700208130BD2DE9F04104460D461646BA
:103140001F46602D06D13B46012231462046FFF73F
:103150005AFE05E03B46012231462046FFF79DFE20
:1031600029462046FFF7D2FF208940F00700208142
:10317000BDE8F08130B50C4600210189C9B24FF697
:10318000FF7505EA0325154325432943018130BD19
:103190002DE9F04105460E46174698460024434661
:1031A0003A4631462846FFF7E5FF2C894FF6F8707E
:1031B000044044F007044FF68F70044044F070045C
:1031C0002C81BDE8F081F0B504460D4616461F4639
:1031D0003B46324629462046FFF7CCFF208940F483
:1031E00080402081F0BD0185828270470A4600211F
:1031F00001884FF68F731940114301807047F0B575
:103200000C4615461E460021002200230189028B30
:10321000038C4FF6F877394021434FF6FC473A408C
:1032200040F201173A434FF6DD773B404FF6FF7708
:1032300007EA06172F433B43018102830384F0BD55
:103240000A460021018B4FF68F7319401143018309
:1032500070470A460021018B48F6FF7319404FF66C
:10326000FF7303EA02231943018370470A460021D2
:10327000818B4FF68F7319401143818370470A4643
:103280000021818B48F6FF7319404FF6FF7303EA64
:10329000022319438183704721B1028842F08002E2
:1032A000028004E002884FF67F731A400280704764
:1032B00021B1828842F00402828004E082884FF6C5
:1032C000FB731A408280704721B1828842F0080265
:1032D000828004E082884FF6F7731A40828070473C
:1032E00021B1828842F00102828004E082884FF698
:1032F000FE731A40828070470A460021018B4FF608
:10330000F77319401143018370470A460021018B6E
:103310004FF2FF7319404FF6FF7303EA022319437C
:10332000018370470A460021818B4FF6F7731940DD
:103330001143818370470A460021818B4FF2FF734E
:1033400019404FF6FF7303EA022319438183704744
:103350000A460021018B4FF6FB731940114301838C
:1033600070470A460021018B4FF6FF3319404FF694
:10337000FF7303EA02231943018370470A460021C1
:10338000818B4FF6FB7319401143818370470A46C6
:103390000021818B4FF6FF3319404FF6FF7303EA8C
:1033A00002231943818370470A460021018B4FF69F
:1033B0007F7319401143018370470A460021018B36
:1033C000C1F30E014FF6FF7303EA02231943018391
:1033D00070470A460021818B4FF67F7319401143D5
:1033E000818370470A460021818BC1F30E014FF69D
:1033F000FF7303EA02231943818370470A460021C1
:10340000018C4FF6FD7319401143018470470A4641
:103410000021018C4FF6F773194011430184704766
:103420000A460021018C4FF6DF7319404FF6FF73F7
:1034300003EA02131943018470470A460021018CF4
:103440004FF67F7319404FF6FF7303EA02131943D7
:10345000018470470A460021018C4FF6FF53194042
:103460004FF6FF7303EA02231943018470470A46AB
:103470000021018C4FF2FF7319404FF6FF7303EAEE
:1034800002231943018470470A460021018C4DF63E
:10349000FF7319404FF6FF7303EA023319430184A7
:1034A000704730B5002301248C40A3B2048C9C43A8
:1034B0000484048C02FA01F5ADB22C43048430BDBF
:1034C00030B5002304248C40A3B2048C9C430484B4
:1034D000048C02FA01F5ADB22C43048430BD70B502
:1034E0000346002000241846183001258D40ACB258
:1034F0001D8CA5431D8409B1082909D100EB610089
:10350000056825F0700505600568154305600EE047
:103510000D1FC5F34E052844056825F4E0450560F8
:1035200005684FF6FF7606EA02263543056070BD52
:1035300021B1028842F00202028004E002884FF6C4
:10354000FD731A400280704721B1028842F00402E4
:10355000028004E002884FF6FB731A400280704735
:1035600021B1828842F08002828004E082884FF696
:103570007F731A408280704702884FF6F7731A40B3
:10358000028002880A430280704782884FF68F7358
:103590001A40828082880A438280704702894FF6EF
:1035A000F8731A40028102890A4302817047028936
:1035B0004FF67F731A40028102890A4302817047E5
:1035C0008184704781857047818670470187704785
:1035D00081877047A0F84010704702884FF6FF437C
:1035E0001A40028002880A43028070470146888E92
:1035F00070470146088F70470146888F7047014623
:10360000B1F8400070470146888C70470146088D2C
:10361000704702460020138A0B400BB1012000E0E6
:1036200000207047CA430282704730B5024600202E
:1036300000230024158A05EA0103958905EA01049F
:1036400013B10CB1012000E0002030BDCA4302825A
:103650007047000010B50446FB48844209D101219F
:103660008803FFF79FF800214FF48040FFF79AF896
:1036700032E0F648844209D101214804FFF79FF85F
:1036800000214FF40030FFF79AF825E0F04884421B
:1036900009D101218804FFF792F800214FF480201E
:1036A000FFF78DF818E0EB48844209D10121C804E6
:1036B000FFF785F800214FF40020FFF780F80BE0BA
:1036C000E548844208D101210805FFF778F8002178
:1036D0004FF48010FFF773F810BD2DE9F04786B066
:1036E00005460E460024A24600BFA1460027B08929
:1036F00000B100BF2F462C8A4CF6FF700440F088C2
:1037000004432C82AC894EF6F3100440B088318912
:103710000843718908430443AC81AC8A4FF6FF40EB
:103720000440B0890443AC8201A8FEF7B4FFC64848
:10373000874202D1DDF810A001E0DDF80CA0A889D5
:1037400000F4004040B10AEBCA0000EB0A103168F7
:103750004900B0FBF1F807E00AEBCA0000EB0A10E1
:1037600031688900B0FBF1F86420B8FBF0F0040187
:103770002009642101FB1089A88900F4004040B1B0
:10378000322000EBC900B0FBF1F000F00700044369
:1037900008E0322000EB09106421B0FBF1F000F0EA
:1037A0000F0004432C8106B0BDE8F0874FF416519A
:1037B000016000218180C18001810C2141810021B3
:1037C0008181704710B502460020108A4FF2FF0336
:1037D00018400B884C8823438C882343CC88234390
:1037E0001843108210BD0021018041808180C1807A
:1037F000704721B1828942F40052828104E08289BB
:103800004DF6FF731A4082817047F0B503460024DD
:1038100000260025002040F66A17B94200D100BFFB
:103820001846C1F3421401F01F06012707FA06F5F6
:10383000012C01D10C3004E0022C01D1103000E049
:1038400014301AB107682F43076002E00768AF43DE
:103850000760F0BD1AB1838A0B43838202E0838A3A
:103860008B4383827047028A4FF6F0731A400282BC
:10387000028A0A430282704782894FF2FF731A401C
:10388000828182890A438281704721B1828942F014
:103890000202828104E082894FF6FD731A40828120
:1038A0007047028A4FF6DF731A400282028A0A4387
:1038B0000282704721B1028A42F48042028204E00F
:1038C000028A4BF6FF731A4002827047C1F3080266
:1038D0008280704701468888C0F30800704781895C
:1038E00041F0010181817047028BD2B20283028BC9
:1038F00042EA012202837047028B02F47F42028374
:10390000028B0A430283704721B1828A42F020026F
:10391000828204E0828A4FF6DF731A408282704707
:1039200021B1828A42F01002828204E0828A4FF63C
:10393000EF731A408282704721B1828A42F00802F6
:10394000828204E0828A4FF6F7731A4082827047BF
:1039500021B1828942F40042828103E08289C2F36C
:103960000E028281704721B1828A42F40062828213
:1039700004E0828A4FF2FF731A4082827047828A83
:103980004FF6FB731A408282828A0A438282704712
:1039900021B1828A42F00202828204E0828A4FF6DA
:1039A000FD731A408282704702460020B1F5007F05
:1039B00000D100BF13880B400BB1012000E00020B4
:1039C000704701F40072B2F5007F00D100BFCA4316
:1039D0000280704770B502460024002300250020B5
:1039E00040F66A16B14200D100BFC1F3421501F0A2
:1039F0001F03012606FA03F3012D02D196893340F5
:103A000006E0022D02D1168A334001E0968A334047
:103A10000C12012606FA04F41688344013B10CB1D6
:103A2000012000E0002070BD10B50022002340F608
:103A30006A14A14200D100BF0A1201249440A3B22B
:103A4000DC43048010BD0000003801400044004009
:103A500000480040004C00400050004010B50446B3
:103A6000FA48844208D101214015FEF79BFE00214F
:103A70006015FEF797FE17E0F548844208D1012152
:103A80000015FEF78FFE00212015FEF78BFE0BE0E0
:103A9000F048844208D10121C803FEF783FE0021CB
:103AA0004FF40040FEF77EFE10BD30B50246002008
:103AB00000235068E84C20400D790C6844EA052446
:103AC000204350609068E54C2040D1E902542C43DB
:103AD0004D7944EA450420439060D06A20F4700098
:103AE0000C7C641EE4B2234340EA0350D06230BD34
:103AF00000210160017141718160C1600121017487
:103B0000704721B1826842F00102826003E082685E
:103B100022F001028260704721B1826842F4807213
:103B2000826003E0826822F480728260704710B580
:103B30000023CBB21AB144681C43446002E04468DD
:103B40009C43446010BD816841F00801816070476A
:103B5000014600208A6802F008020AB1012000E054
:103B600000207047816841F0040181607047014680
:103B700000208A6802F004020AB1012000E000205F
:103B8000704721B1826842F4A002826003E082683B
:103B900022F4A00282607047014600208A6802F485
:103BA00080020AB1012000E00020704710B50A46EB
:103BB00000210023416821F46041531E41EA433152
:103BC000416010BD21B1426842F40062426003E0EE
:103BD000426822F4006242607047F0B504460D4628
:103BE00000200021092D11DDE068A5F10A0606EB91
:103BF0004607072606FA07F18843A5F10A0606EBF1
:103C0000460603FA06F10843E0600CE0206905EB84
:103C10004507072606FA07F1884305EB450603FA30
:103C200006F108432061072A0FDA606B561E06EB87
:103C300086071F2606FA07F18843561E06EB8606FE
:103C400005FA06F10843606322E00D2A0FDA206BC3
:103C5000D61F06EB86071F2606FA07F18843D61FF4
:103C600006EB860605FA06F10843206310E0E06AD9
:103C7000A2F10D0606EB86071F2606FA07F1884318
:103C8000A2F10D0606EB860605FA06F10843E0628E
:103C9000F0BD21B1826842F48012826003E0826844
:103CA00022F48012826070470146C86C80B270476F
:103CB00066484C300068704721B1426842F4806227
:103CC000426003E0426822F480624260704721B1A2
:103CD000426842F48052426003E0426822F480521B
:103CE000426070470A460021816821F4E041114397
:103CF0008160704721B1826842F40042826003E033
:103D0000826822F400428260704721B1826842F4E6
:103D10000212826003E0826822F40212826070471D
:103D2000014600208A6802F400120AB1012000E076
:103D300000207047F0B504461546002000220026FA
:103D4000092911DDE068A1F10A0707EB470C0727F5
:103D500007FA0CF29043A1F10A0707EB470703FAB1
:103D600007F21043E0600CE0206901EB410C0727EB
:103D700007FA0CF2904301EB410703FA07F21043F4
:103D80002061A06BC0F30156EF1C06F1010CA7EBFC
:103D90000C0707EB870C1F2707FA0CF29043EF1C68
:103DA00006F1010CA7EB0C0707EB870701FA07F2F6
:103DB0001043A063F0BD10B50A4600210023816BBB
:103DC00021F44011531E41EA0351816310BD08B52F
:103DD000002300930090009B0B440093009B1A600B
:103DE00008BD08B5024600200090009201F12800AD
:103DF000009B184400900098006880B208BD0A46F5
:103E000000214168164B19401143416070474162DF
:103E1000826270470A460021416821F01F01114368
:103E20004160704740B109490831096841F4000117
:103E3000064A0832116007E004490831096821F494
:103E40000001024A0832116070470000002401405E
:103E500000280140003C0140FFFEF0FFFDF7F1FFAC
:103E6000FFFD3FFF0246002013680B400BB101200D
:103E700000E000207047CA430260704770B50246F8
:103E80000020002300240B125568CEB205EA060478
:103E900015681D4015B10CB1012000E0002070BD77
:103EA00000220A12D34303607047000000204449F7
:103EB0000860091D0860091D0860091D0860414867
:103EC0003F4914310860704700213D498279002A3A
:103ED0003AD00A46126803689A430B461A600A1DD4
:103EE000126803689A430B1D1A60027911440A682C
:103EF00003681A430A60324A0832126803689A4318
:103F00002F4B08331A601A1D126803689A432C4B12
:103F10000C331A604279102A0ED11A1F12680368F6
:103F20001A43274B08331A601A1D126803681A4394
:103F3000234B0C331A600DE02149427911440A6881
:103F400003681A430A6005E0027911440A680368AD
:103F50009A430A6070470021016001710C21417190
:103F60000021817170471649103109680143144AD4
:103F700010321160704701460020114A1432126855
:103F80000A400AB1012000E0002070470C491431BA
:103F900008607047014600200022094B1B6803EAB5
:103FA0000102074B14331B680B4013B10AB1012007
:103FB00000E000207047024914310860704700009B
:103FC00000040140FFFF0F0029B1504A128802434C
:103FD0004E4B1A8004E04D4A128882434B4B1A80A4
:103FE00070474A48001D008840F010004749091DED
:103FF000088070474548001D00884FF6EF71084063
:104000004249091D08807047002140481C30018842
:10401000001F008841EA0040704700B50246FFF7E4
:10402000E0FF100C394918310880091D0A80FFF79C
:10403000E1FF00BD00B50246FFF7D3FFC2F3034026
:10404000324908310880091D0A80FFF7D3FF00BDFF
:1040500000B50246FFF7C5FF100C2C49203108803F
:10406000091D0A80FFF7C6FF00BD00202749103157
:1040700009880907080B2549143109880843704746
:1040800000BF2248001D008800F020000028F8D062
:1040900070471E48001D00884FF6F77108401B4905
:1040A000091D088000BF1948001D008800F00800A5
:1040B0000028F8D0704701460020144A121D1288CB
:1040C0000A400AB1012000E0002070470F49091D95
:1040D000098881430D4A121D118070470146002056
:1040E0000A4A121D12880A40D0B2084A12880A40B1
:1040F00012B108B1012000E0002070470349091DFA
:1041000009888143014A121D118070470028004030
:1041100010B501210807FEF752FB00214FF0805037
:10412000FEF74DFB10BD2A49086270472849086117
:10413000704701460020274A106820F0E00008433D
:10414000106070472249A0310860704710B50246E0
:104150000020204B186820F00300104318601E4B0D
:104160001B6843F004031C4C2360012901D130BFBC
:1041700000E020BF184B1B6823F00403164C23609B
:1041800010BD1448006840F0040012490860084659
:10419000006840F0020008600F48006840F004002A
:1041A0000D49086000BF00BF30BF704701460020C6
:1041B000084A52680A400AB1012000E00020704716
:1041C0000449096841EA8001024A11607047000011
:1041D00000000E420070004010ED00E010B501201C
:1041E000FEF7FAFA0020FEF7F7FA10BD2A49086038
:1041F00070472949091F08607047274984310860C2
:10420000704701460020254A10884FF67F42104033
:104210000843224A10807047014600201F4A108838
:104220004FF68072104008431C4A1080704708B552
:1042300000220092194A2C3A0092009A02440092FD
:10424000009A116008BD08B501460020009013488F
:104250002C3800900098084400900098008808BD11
:104260000D489C300068C0B270470C480830008888
:1042700040F0010009490831088070470648A03025
:104280000068C0B2704705480830008840F002005E
:10429000024908310880704704860D422C6C0040AA
:1042A000704700000FB4044910B503AA029800F04B
:1042B000D1F810BC5DF814FB3C0000202DE9F04162
:1042C0000E460446002020622046E168884730B34D
:1042D000252805D0D4E901219047206A401CF2E747
:1042E000E168204600278847050018D0A5F1410065
:1042F000192802D820354FF4006732462946204657
:104300002760FBF74FFF40B1012804D0F61D26F0CF
:1043100007060836D8E7361DD6E72846DAE7206ACA
:10432000BDE8F0812DE9F0410646002410687529AA
:10433000314615A510D0AFF30080002802DA4042C4
:1043400012A507E031688A0701D511A502E04907E7
:1043500004D510A5012401E0AFF3008000210A2359
:1043600006F1240707E0B0FBF3F203FB1200303044
:1043700078541046491C0028F5D123462A46304679
:10438000BDE8F04100F00CB8000000002D00000076
:104390002B000000200000007047704770477047F6
:1043A0002DE9F0470D4699469246044600F124084F
:1043B0000168880604D5E06921F01001216000E061
:1043C0000120A84201DD471B00E00027A1697A19FE
:1043D00002EB0900081AA0612078C00602D420462A
:1043E000AFF30080002608E0D4E901211AF80600A6
:1043F0009047206A401C761C20624E45F4DB2078F2
:10440000C0060AD52046AFF3008006E0D4E90121BA
:1044100030209047206A401C2062381EA7F1010717
:10442000F4DC07E0D4E9012118F805009047206A80
:10443000401C2062281EA5F10105F3DC2046AFF3E5
:1044400000802078000602D50220BDE8F087012018
:10445000FBE70000074B70B50D467B4400F011F8F8
:104460000446284600F020F810B14FF0FF3070BD30
:10447000204670BD85DAFFFF01694A1C0261087899
:10448000704700B58FB0CDE9013100210591054994
:104490007944CDE9031011466846FFF70FFF0FB0CE
:1044A00000BD0000E5FFFFFF007B00F080007047CB
:1044B000754600F029F8AE4605006946534620F0DF
:1044C0000700854618B020B5FDF7B6FDBDE82040D1
:1044D0004FF000064FF000074FF000084FF0000BC0
:1044E00021F00701AC46ACE8C009ACE8C009ACE873
:1044F000C009ACE8C0098D4670470446AFF30080A0
:104500002046FBF761FE0000004870477401002060
:104510000003030601040602050003051F1C1F1EFD
:104520001F1E1F1F1E1F1E1F4845000800000020E1
:10453000580000006C010008A04500085800002049
:104540008007000088010008000000000000000053
:1045500000000000000000000005050000A24A0461
:104560000000000000000000010203040607080923
:10457000000000000000000000000001000000003A
:104580000000000000000000000000000000010228
:1045900003040102030406070809020406080000D8
:0400000508000131BD
:00000001FF
