:020000040800F2
:10000000E00700206133000841160008431600088D
:10001000471600084B1600084F16000800000000A5
:10002000000000000000000000000000531600085F
:100030005516000800000000571600085916000861
:100040007B3300087B3300087B3300082B0F00084C
:100050007B3300087B3300087B330008ED15000874
:100060007B3300087B3300087B3300087B330008B8
:100070007B3300087B3300087B3300087B330008A8
:100080007B3300087B3300087B3300087B33000898
:100090007B3300087B3300087B33000851020008E3
:1000A0007B3300087B3300087B3300087B33000878
:1000B0007B3300087B3300087B3300087B33000868
:1000C0007B3300087B3300087B3300087B33000858
:1000D0007B330008D53200087B3300087B330008EF
:1000E000E92700087B3300087B3300087B330008D6
:1000F0007B3300087B3300087B3300087B33000828
:100100007B3300087B3300087B3300087B33000817
:100110007B3300087B3300087B3300087B33000807
:100120007B3300087B3300087B3300087B330008F7
:1001300000F002F800F03FF80AA090E8000C8244BA
:100140008344AAF10107DA4501D100F034F8AFF297
:10015000090EBAE80F0013F0010F18BFFB1A43F0A5
:10016000010318471057000030570000103A24BF11
:1001700078C878C1FAD8520724BF30C830C144BF0C
:1001800004680C607047000000230024002500264E
:10019000103A28BF78C1FBD8520728BF30C148BFEA
:1001A0000B607047642905F05F82002070471FB51F
:1001B0001FBD10B510BD05F01DFB1146FFF7F7FF81
:1001C00001F000FA05F03BFB03B4FFF7F2FF03BCBC
:1001D00003F022F810B502F0AFFF03F017F84FF468
:1001E000165003F028F802F063F802F073FC02F0F6
:1001F00077FA02F009FD02F048FD02F03FFF01F03E
:1002000008FC01F063FF01F0A1FF01F071FD012185
:10021000F64804F0EFF802F0C1FDF5A005F0E4F9AE
:1002200010BD10B5002404E00020F7490855601CFB
:10023000C4B2082CF8DBF5484078C0F3401030B168
:10024000F3480278F3480178EF4802F0C1F910BD95
:1002500010B50120F0490870202005F02EF870B18B
:100260000120EE490870EE49087001F011FE0020EF
:1002700001F056FF0021084601F0A9FF1BE04020D5
:1002800005F01BF818B10220E449087013E0802043
:1002900005F013F818B10320E04908700BE04FF4A3
:1002A000807005F00AF818B10420DC49087002E0FB
:1002B0000020DA490870DB48006840F4F070D94942
:1002C000086010BD10B5D448007800286FD0D3481E
:1002D0000078012806D0022878D0032834D00428DA
:1002E00068D1A5E001220421C74802F030F8C748D0
:1002F0004078C0F3800030BBC4484078C0F3401061
:10030000A8B10020C8490870C14800783C2805DA27
:10031000BF480078401CBE49087014E0BD48007812
:10032000401CBC4908700020B94908700BE001F07E
:10033000AFFD002001F0F4FE0021084601F047FF68
:100340000120B749087094E001220521AE4801F070
:10035000FEFFAE484078C0F3401050B3AD4800787F
:1003600010B9AB480078D8B104F0DDFF002004F0EC
:10037000F6FF05F027F8AD4805F00CF805F022F877
:1003800004F0DAFF0020AA49487008709F484078BE
:1003900020F0400040309D4948700A2002F05FFC88
:1003A0009A48407820F02000984948700AE064E0BC
:1003B0000CE000E05CE09548407820F02000203020
:1003C0009249487001209649087052E001220621A6
:1003D0008D4801F0BCFF8D484078C0F3401018B341
:1003E0008B48007870B19048007828B18848007830
:1003F0000A38874908701AE085480078401E844909
:10040000087014E08348007840B13C2080490870AF
:1004100080480078401E7F49087008E000207C4931
:1004200008707C49087002E002207D49087020E0D5
:1004300001220A21744801F08AFF74484078C0F311
:100440004010A0B1012078490870714800783C281C
:1004500005DA6F4800780A306D49087007E06D488A
:100460000078401C6B49087000206949087000E062
:1004700000BF00BF00206849087010BD10B50024FF
:1004800002F0A4FA0446002C77D0622C3ED017DC90
:10049000302C73D00BDC102C71D003DC4CB3022C4D
:1004A0006ED139E0182C6CD0222CF9D147E0382CD1
:1004B00068D0422C67D0522C76D05A2CF0D104E16F
:1004C000A82C61D00CDC902C64D004DC682C6CD09F
:1004D0007A2CE5D1DBE0982C68D0A22CE0D109E0A1
:1004E000B02C77D0C22C24D0E02C2ED0E22CD7D147
:1004F00013E001E14A480078022803D1012048496D
:10050000087002E0022046490870F5E04948017889
:10051000002001F0E0FCEFE0EEE041480078022826
:1005200003D1012001F0FCFD02E0002001F0F8FD04
:10053000E2E040480178022001F0CDFCDCE03D48DB
:100540000178032001F0C7FCD6E03A480078002883
:1005500005DD38480078401E3649087002E000206A
:100560003449087033480178204804F0D1F9314803
:1005700001781E4804F0CEF9BEE0BEE076E091E0DE
:10058000B9E07EE09BE0ADE02A480178012001F06F
:10059000A2FCB1E027480078462808DA2548007810
:1005A000401C2449087005E0A2E014E04EE046201B
:1005B000204908701F4801781FA005F015F81D4854
:1005C00001780A4804F0A4F91A480178074804F0B1
:1005D000A1F991E040E0012203210B4801F0B7FEB0
:1005E0001448007801F004FC86E00000003401406B
:1005F00053797374656D5F496E69742066696E69BD
:1006000073686564210D0A000700002002000020C5
:100610002100002022000020100000200F000020F8
:10062000000000201404014023000020805101003C
:10063000AA000020110000206D5F6D6F76655F736A
:10064000706565643D25640D0A00000002220321E7
:10065000FA4801F07CFE4FE003221146F74801F012
:1006600076FEF748007801F0D7FB45E0042203212D
:10067000F24801F06CFEF2480178042001F02BFCF6
:100680003AE005220321ED4801F061FE34E0062244
:100690000321EA4801F05BFEE9480178052001F0FA
:1006A0001AFC29E007220321E44801F050FEE44847
:1006B00002780221E348008801F04EFC1CE0082289
:1006C0000321DE4801F043FE16E009220321DB4846
:1006D00001F03DFEDA4802780321DA48008801F093
:1006E0003BFC09E000220321D44801F030FE03E086
:1006F00001F0BFFC00E000BF00BF002410BD10B53A
:10070000002407E0204601F0C9F9CF4921F8140080
:10071000601CC4B2062CF5DD072407E0204601F07A
:10072000BDF9C94921F81400601CC4B20A2CF5DDDA
:100730000B2407E0204601F0B1F9C34921F8140069
:10074000601CC4B20D2CF5DD132407E0204601F037
:10075000A5F9BD4921F81400601CC4B2172CF5DDC1
:10076000182407E0204601F099F9B74921F8140050
:10077000601CC4B21A2CF5DDB448007890B118247E
:1007800008E0B14830F814202146B1A004F02CFF55
:10079000601CC4B21A2CF4DDB0A004F025FF0020C8
:1007A000AA490870A848008840F6C411884207DDAD
:1007B000AB48007820F010001030A949087005E01F
:1007C000A748007820F01000A54908709E4840888E
:1007D000B0F5486F07DDA248007820F00800083027
:1007E0009F49087005E09E48007820F008009C4969
:1007F00008709548808840F64851884207DD98483F
:10080000007820F00400001D9549087005E0944828
:10081000007820F00400924908708B48C08840F6A8
:10082000E441884207DD8E48007820F00200801CF9
:100830008B49087005E08A48007820F0020088495A
:1008400008708148008940F67461884207DD844859
:10085000007820F00100401C8149087005E08048C4
:10086000007820F001007E4908707748408938B14F
:100870007C48007820F00100401C7A49087005E0AF
:100880007848007820F00100764908706E48808929
:1008900038B17448007820F00200801C714908705B
:1008A00005E07048007820F002006E490870664844
:1008B000C089012807D06C48007820F00100401C56
:1008C0006949087005E06848007820F00100664931
:1008D00008705D48008A012807D06348007820F03E
:1008E0000200801C6049087005E05F48007820F035
:1008F00002005D4908705448408A012807D05A48D0
:10090000007820F00400001D5749087005E05648A3
:10091000007820F00400544908704B48808A012870
:1009200007D05148007820F0080008304E49087080
:1009300005E04D48007820F008004B49087010BDD4
:1009400070B504460D46002C75D0474800780F2836
:1009500072D2DFE800F008101820283038404850E4
:100960005860688B9300364803780222B4215A20DD
:1009700001F06DFB8BE0324803780222B4215A204B
:1009800001F065FB83E02E4803780322B4215A204E
:1009900001F05DFB7BE02A4803780322B4215A2052
:1009A00001F055FB73E0264803780222B4215A2057
:1009B00001F04DFB6BE0224803780322B4215A205A
:1009C00001F045FB63E01E4803780222B4215A205F
:1009D00001F03DFB5BE01A4803780322B4215A2062
:1009E00001F035FB53E0164803780222B4215A2067
:1009F00001F02DFB4BE0124803780222B4215A206B
:100A000001F025FB43E00E4803780222B4215A206E
:100A100001F01DFB3BE00A4803780222B4215A2072
:100A200001F015FB33E0064803780222B4215A2076
:100A300001F00DFB2BE066E128E00000070000203C
:100A40001100002014000020740000201B00002072
:100A50005B25645D3D25642C000000000D0A00004C
:100A6000040000200500002006000020FA4803785A
:100A70000222B4215A2001F0EAFA08E0F64803788D
:100A80000222B4215A2001F0E2FA00E000BF00BFC8
:100A9000F248007820B101280AD0022818D10FE0CE
:100AA000ED4803780222B4215A2001F0D0FA10E078
:100AB000E94803780322B4215A2001F0C8FA08E07B
:100AC000E54803780222B4215A2001F0C0FA00E080
:100AD00000BF00BFE24800781F2871D2DFE800F0B5
:100AE0001018202830384048505860687179818942
:100AF0009199A1A9B1B9C1C9D1D9E1E9F4FCF10039
:100B0000D54803780222B4215A2001F0A0FAF9E076
:100B1000D148037803225A21084601F098FAF1E0FF
:100B2000CD48037802225A21084601F090FAE9E004
:100B3000C948037802225A21084601F088FAE1E008
:100B4000C548037802225A21084601F080FAD9E00C
:100B5000C148037802225A21084601F078FAD1E010
:100B6000BD48037802225A21084601F070FAC9E014
:100B7000B948037802225A21084601F068FAC1E018
:100B8000B548037802225A21084601F060FAB9E01C
:100B9000B148037802225A21084601F058FAB1E020
:100BA000AD48037802225A21084601F050FAA9E024
:100BB000A948037802225A21084601F048FAA1E028
:100BC0009AE0A548037802225A21084601F03FFA2C
:100BD00098E0A148037802225A21084601F037FA2A
:100BE00090E09D48037802225A21084601F02FFA2E
:100BF00088E09948037802225A21084601F027FA32
:100C000080E09548037802225A21084601F01FFA35
:100C100078E09148037802225A21084601F017FA39
:100C200070E08D48037802225A21084601F00FFA3D
:100C300068E08948037802225A21084601F007FA41
:100C400060E08548037802225A21084601F0FFF946
:100C500058E08148037802225A21084601F0F7F94A
:100C600050E07D48037802225A21084601F0EFF94E
:100C700048E07948037802225A21084601F0E7F952
:100C800040E07548037802225A21084601F0DFF956
:100C900038E07148037802225A21084601F0D7F95A
:100CA00030E06D48037802225A21084601F0CFF95E
:100CB00028E06948037802225A21084601F0C7F962
:100CC00020E011E008E0FFE76348037802225A21A0
:100CD000084601F0BCF915E05F48037802225A216A
:100CE000084601F0B4F90DE05B48037802225A216E
:100CF000084601F0ACF905E057480178002001F002
:100D0000EAF800BF0CE05DB953480178002001F01B
:100D1000E2F8002001F004FA0021084601F057FA39
:100D200070BD10B50446002C49D04E48008E40F2EC
:100D30003A7188420ADA4C48007800283FD00420F3
:100D400001F02FFC00204849087038E04548008E2B
:100D500040F29E71884209DA4348007828B30320A4
:100D600001F01FFC00204049087028E03D48008E3B
:100D700040F60201884209DA3B480078A8B1022017
:100D800001F00FFC00203849087018E03548008E4B
:100D900040F66601884209DA3348007828B101201C
:100DA00001F0FFFB00203049087008E02E48007871
:100DB00028B1002001F0F5FB00202B49087010BD80
:100DC00010B50120FFF7ADFF28484078C0F3800040
:100DD000002857D02348008E40F66601884225DA65
:100DE00001F056F8002001F09BF90021084601F0BF
:100DF000EEF91C48008E40F23A7188420ADA1C482B
:100E0000007838B31B48007801F0D4FF002018495F
:100E1000087039E01348008E40F60201884202DA79
:100E200001F0DBFF30E001F0E0FF2DE00F484078FB
:100E300020F0100010300D49487001F065FF0E4899
:100E40000078D8B1052001F00AFF0B480078401E59
:100E50000949087018E0000011000020050000207A
:100E600004000020740000201C000020020000206C
:100E70001E0000201A000020170000200020FB495F
:100E8000087001E001F040FF10BD10B501F000F85E
:100E9000002001F045F90021084601F098F9F448D6
:100EA0000078C0F3401020B101221146F14801F052
:100EB000DEFAEF480078C0F3001020B102220121D1
:100EC000EC4801F0D4FAEA480078C0F3C00020B141
:100ED00003220121E74801F0CAFAE5480078C0F38F
:100EE000801020B104220121E24801F0C0FAE0485C
:100EF0000078C00920B105220121DE4801F0B7FACF
:100F0000DB480078C0F3400020B108220121D94815
:100F100001F0ADFAD6480078C0F3800020B101227C
:100F20000B21D44801F013FA10BD10B5012004F0D4
:100F300077FA70B101F0CEFF0120CF490870CF4998
:100F40000870CF490870CF490870CF490870CF4961
:100F50000870022004F064FA00B3CD48008840F025
:100F60001000CB490880002004F0F9F904F02AFAB7
:100F7000C74800884FF6EF710840C5490880002037
:100F8000C449087048708870B948407820F0400023
:100F90004030B7494870022004F052FA052004F0AE
:100FA0004FFA04F00FFA10BD10B5B1484078C0F305
:100FB0008010002843D0B8480078F8B9B7480078C6
:100FC00030B9AB48407820F08000A949487030E043
:100FD000B0484078B149097888422AD1A44840787D
:100FE00020F080008030A24948700846407820F008
:100FF00040004870082001F032FE1AE0A548407811
:10100000A6490978884214D1A2480078A2490978F3
:1010100088420ED19648407820F080008030944974
:1010200048700846407820F040004870082001F0E1
:1010300016FE98488278417899A004F0D5FA10BD40
:1010400010B59B480078042841D09A48008E40F2A1
:10105000D661884235DA8648007820F00200801C8C
:101060008349087008220121824801F000FA00201B
:1010700001F056F80021084601F0A9F88D48008ECD
:1010800040F27261884215DA7948007820F0040055
:10109000001D7749087001220B21764801F057F9AD
:1010A0007A48007898B1042001F0D9FD00207749F2
:1010B00008700CE06E48007820F004006C4908705D
:1010C00005E06B48007820F0020069490870794813
:1010D000408EB0F5FA6F4FDD6548407820F0010092
:1010E000401C634948707348008E40F2DC518842CE
:1010F00017DA002201215F4801F0B9F901F004FE7E
:101100005B48407820F00400594948705C480078FA
:1011100000283ED0042001F0A2FD002058490870AC
:1011200037E06448008E40F6282188420DDD002219
:101130000121504801F09BF901F0E6FD4C48407850
:1011400020F004004A49487023E04948407820F0E4
:101150000400001D464948705748007840B10720F8
:1011600001F07DFD54480078401E5349087010E09E
:101170000020514908700CE001F0C6FD3C48407861
:1011800020F001003A4948700846407820F00400F9
:10119000487037484078C0F3800048490870454897
:1011A000C08AA8B900F074FE002000F0B9FF002149
:1011B000084601F00CF82E48007820F0200020307E
:1011C0002B490870012211462A4801F050F905E028
:1011D0002748007820F02000254908703548C08C49
:1011E00058B93448008D40B93248408D28B931484B
:1011F000808D10B92F48C08D98B11D48007820F01F
:10120000100010301A4908702D4803780222B421CA
:101210005A2000F01CFF02220121164801F027F994
:1012200005E01348007820F01000114908702148AB
:10123000808EB0F5FA6F45DD0D48007820F008008B
:1012400008300B490870032201210A4801F00FF908
:1012500000F01EFE002000F063FF0021084600F0B1
:10126000B6FF032001F0FBFC32E000001700002075
:1012700002000020070000201B0000201C000020AE
:101280001D0000201E0000201F0000202000002064
:1012900004280040AA000020220000202100002095
:1012A0006D696E3D25642C7365633D25640D0A00F0
:1012B000000000207400002016000020190000200B
:1012C00011000020D648007820F00800D4490870AA
:1012D000D448008BD0B9D248007820F0400040308C
:1012E000CF49087000F0D4FD002000F019FF002164
:1012F000084600F06CFF04220121CB4801F0B7F84A
:1013000001220921C84801F022F805E0C44800780C
:1013100020F04000C2490870C248408B08BBC0485A
:10132000007820F080008030BD490870002000F077
:10133000F7FE0021084600F04AFF05220121BA48C5
:1013400001F095F801220921B74801F000F8B748EB
:10135000007860B1042001F082FC0020B3490870DD
:1013600005E0AF48007820F08000AD49087010BD5E
:10137000AF480078072872D2DFE800F0C60449724F
:1013800093B4B500A6484078C00940B10220A849EE
:101390000870A348407820F08000A1494870A04818
:1013A0004078C0F3800010B10420A14908709C4827
:1013B0000078C0F3400010B106209D49087098489D
:1013C0000078C0F3401010B1062099490870944885
:1013D0000078C0F3801010B106209549087090483D
:1013E0000078C0F3800010B10620914908708C4845
:1013F0000078C0F3C00010B106208D4908708848FD
:101400000078C00910B106208949087080E084483E
:101410000078C0F3400010B103208549087080486F
:10142000007800F0010010B10620814908707C4866
:101430000078C0F3001010B106207D49087078488C
:101440000078C0F3401010B1062079490870744844
:101450000078C00910B106207549087058E053E0C3
:101460006F480078C0F3800010B101207049087007
:101470006B480078C0F3001010B101206C4908706F
:1014800067480078C0F3401010B101206849087027
:1014900063484078C0F3800010B1042064490870AC
:1014A00036E05F484078C0F3001010B10120604979
:1014B00008705B48407800F0010010B901205C49D9
:1014C000087057484078C0F3800010B9012058498F
:1014D000087053480078C0F3C00010B1012054498F
:1014E000087015E014E04E480078C0F3401010B9C1
:1014F00001204F4908704A480078C0F3801010B9A5
:1015000001204B49087003E001204949087000BFE1
:1015100000BF704710B54648007807284CD2DFE876
:1015200000F04B0412234447480000F0B1FC0020B7
:1015300000F0F6FD0021084600F049FE00210846B3
:10154000FFF7FEF93CE03648007820B1002108465C
:10155000FFF7F6F907E03748007800F0AAFC002111
:101560000120FFF7EDF92BE02D48007820B1002194
:101570000846FFF7E5F90DE029484078C0F3400040
:1015800020B101210020FFF7DBF903E0012108462B
:10159000FFF7D6F922480078C0F3400020B10022BE
:1015A0000121214800F063FF0AE0FFF709FC07E092
:1015B00006E0FFF76AFC03E001201D49087000BF48
:1015C00000BF10BDFEF706FE0FE0FEF77BFEFEF744
:1015D00055FFFFF794F8FFF733FDFFF7C9FEFFF75C
:1015E00099FFFFF7E1FCFEF71CFEEEE710B500F0F7
:1015F0004FFC002000F094FD0F480178002000F01F
:10160000E6FD0748007820F02000203004490870EB
:101610000A48006820F002000849086010BD000078
:101620000200002074000020070000201F0000209E
:1016300000000020110000201200002014040140CE
:10164000704700BFFEE700BFFEE700BFFEE700BF38
:10165000FEE7704770477047704700000CB50020E8
:10166000019000906C48006840F480306A4908603E
:1016700000BF6948006800F4003000900198401CE9
:101680000190009818B90198B0F5A06FF1D16248A7
:10169000006800F4003010B10120009001E000204B
:1016A00000900098012843D15C48006840F0100089
:1016B0005A4908600846006820F0030008600846A0
:1016C000006840F002000860534840685249486092
:1016D0000846406848600846406840F480604860BA
:1016E0000846406820F47C1048600846406840F492
:1016F000E81048600846006840F08070086000BF4D
:101700004548006800F000700028F9D04248406861
:1017100020F00300404948600846406840F002005D
:10172000486000BF3C48406800F00C000828F9D130
:101730000CBD10B5FFF792FF10BD10B5364800681C
:1017400040F00100344908600846406834490840C8
:101750003149486008460068324908402E4908600F
:101760000846006820F4802008600846406820F49D
:10177000FE0048604FF41F008860FFF7DAFF4FF06B
:1017800000602949086010BD10B50021002000222A
:10179000214B5B6803F00C0121B1042906D0082914
:1017A00028D107E0214B224C236027E01F4B204C1F
:1017B000236023E0184B5B6803F47010164B5B68E2
:1017C00003F48032022303EB904022B9194B4343C8
:1017D000174C23600DE0104B5B6803F4003323B11A
:1017E000144B4343124C236003E0104B4343104C13
:1017F000236003E00D4B0E4C236000BF00BF064B7F
:101800005B68C3F303130C4CE15C094B1B68CB40D2
:10181000074C236010BD0000001002400020024071
:101820000000FFF8FFFFF6FE08ED00E000127A006E
:101830002400002000093D002800002010B50446C7
:10184000072301222146DE4803F069FB0121DC4821
:1018500003F039FB00BF0221D94803F0A5FC0028A2
:10186000F9D0D74803F0C2FB10BD2DE9F04107467F
:101870000C460025002608E03846FFF7DFFF054448
:10188000052001F096FC701CC6B2A642F4DBB5FB45
:10189000F4F080B2BDE8F08130B589B005460C4661
:1018A0000121480302F006F90121112002F002F99A
:1018B0004FF40070ADF8040018208DF807000320E5
:1018C0008DF8060001A9BF4801F038FEADF81C50A4
:1018D000ADF818400020ADF81E00ADF81A0006A9BA
:1018E000B94802F01FFA7020ADF808000120ADF8E9
:1018F0000A000020ADF8100002A9B34802F029FB4D
:101900000821B14802F0B9FE0121AF4802F066FD9E
:1019100009B030BD00B587B001214FF4057002F069
:10192000C9F84FF4404002F029F8F820ADF804005F
:1019300000208DF8070001A9A44801F0FFFD312027
:10194000ADF8040000208DF8070001A99D4801F0C2
:10195000F5FD9B4803F024FA002002908DF80C005E
:101960008DF80D004FF460200490002005900120B8
:101970008DF8180002A9924803F039FA0121904825
:1019800003F061FA8E4803F080FA00BF8C4803F040
:1019900081FA0028FAD18A4803F086FA00BF884805
:1019A00003F087FA0028FAD107B000BD1FB5012166
:1019B000084602F07FF80121042002F07BF80220A3
:1019C000ADF80C0048208DF80F0003A97F4801F006
:1019D000B5FD0121002001F0C7FE0220019000208A
:1019E0008DF808000C208DF8090001208DF80A0000
:1019F00001A803F00BFC07208DF8000001208DF8F2
:101A000001008DF802008DF80300684601F0CDFC5E
:101A10001FBD08B501217C2002F04CF80420ADF870
:101A2000000048208DF803006946684801F086FDF3
:101A30004FF44040ADF8000048208DF8030069469F
:101A4000634801F07BFD4FF4A050ADF80000482042
:101A50008DF8030069465B4801F070FDF820ADF891
:101A6000000048208DF8030069465A4801F066FDE1
:101A70004FF47040ADF8000048208DF8030069462F
:101A8000554801F05BFDFFF745FF47216320FFF755
:101A900003FF2A214C4802F03FFF08BD70B5054600
:101AA0001B2D71D2DFE805F00E13181D22272C32F2
:101AB000373D43494E538686868686595E646A71F1
:101AC000777C81000620FFF7B9FE044674E003200E
:101AD000FFF7B4FE04466FE00420FFF7AFFE0446B4
:101AE0006AE00720FFF7AAFE044665E00520FFF73D
:101AF000A5FE044660E03948006800F001045BE0A0
:101B00003648001D006800F0010455E034480068C4
:101B100000F0010450E03248001D006800F00104AC
:101B20004AE02F480C30006800F0010444E02C48E3
:101B30000830006800F001043EE02A48006800F028
:101B4000010439E02848006800F0010434E0264828
:101B50000838006800F001042EE02448006800F016
:101B6000010429E02148001D006800F0010423E081
:101B70001E480830006800F001041DE01B480C30CE
:101B8000006800F0010417E014E018481030006805
:101B900000F0010410E00F20FFF750FE04460BE0B8
:101BA0000E20FFF74BFE044606E00A20FFF746FE34
:101BB000044601E0002400BF00BF204670BD0000C5
:101BC00000240140001001400034014000080140A1
:101BD000000C0140001401400018014038812142EE
:101BE0003001234204012142300122420C81224271
:101BF00030B589B005460C460121480301F05AFF73
:101C00000121112001F056FF4FF4C070ADF804001F
:101C10001C208DF8070003208DF8060001A9F94863
:101C200001F08CFCADF81C50ADF818400020ADF868
:101C30001E00ADF81A0006A9F34802F073F8602000
:101C4000ADF808000120ADF80A000020ADF8100042
:101C500002A9ED4802F0E5F802A9EB4802F02EF9DE
:101C60000821E94802F0F3FC0821E74802F0FCFCF7
:101C70000121E54802F0B2FB09B030BD08B50121F1
:101C8000062001F024FF0121212001F013FF012093
:101C9000ADF8000048208DF8030001208DF8020007
:101CA0006946DA4801F04AFC00234FF40042194625
:101CB000D74802F02AFC0121D54802F08FFB04200E
:101CC000ADF8000048208DF8030001208DF80200D7
:101CD0006946D04801F032FC00234FF40042194617
:101CE000CD4802F012FC0121CB4802F077FB08BD81
:101CF00008B50121402001F0DDFE0220ADF8000012
:101D000014208DF8030003208DF802006946BF48B7
:101D100001F014FC0221BD4801F0BFFC0420ADF825
:101D2000000014208DF8030003208DF8020069469E
:101D3000B64801F003FC0421B44801F0ACFC4FF4B8
:101D40000070ADF8000014208DF8030003208DF81A
:101D500002006946AD4801F0F1FB4FF40071AB4859
:101D600001F09BFC4FF48060ADF8000014208DF86A
:101D7000030003208DF802006946A44801F0DEFB51
:101D80004FF48061A14801F086FC47216320FFF7F2
:101D90002FFFFFF773FF08BD70B504460D4624B151
:101DA0002946994802F0B4FD03E02946964802F01E
:101DB000B1FD70BD0020994908609949C1F8A4019E
:101DC00070470120954908609549C1F8A401704702
:101DD00000209249086001209149C1F8A401704790
:101DE00001208E49086000208D49C1F8A401704788
:101DF00070B50446A4F10A00C5B229460120FFF7D8
:101E0000CBFF21460020FFF7C7FF00208349086071
:101E10008349C1F8A40170BD70B50446A4F10A005D
:101E2000C5B221460120FFF7B7FF29460020FFF782
:101E3000B3FF0020794908607949C1F8A40170BD59
:101E400070B5044604F10A00C5B221460120FFF72F
:101E5000A3FF29460020FFF79FFF01206F4908607C
:101E60006F49C1F8A40170BD70B5044604F10A00C1
:101E7000C5B229460120FFF78FFF21460020FFF75A
:101E80008BFF0120654908606549C1F8A40170BD58
:101E900010B500215C4802F03BFD00215A4802F0D9
:101EA00039FD01205D49091D08605D49C1F8A8019F
:101EB00010BD10B504462146534802F029FD2146C5
:101EC000514802F027FD00205449091D086054497B
:101ED000C1F8A80110BD70B505460C46E1B201205D
:101EE000FFF75AFFE1B20020FFF756FF082D1ED280
:101EF000DFE805F01D04070A0D111519FFF761FF52
:101F000018E0FFF765FF15E0FFF76AFF12E0E0B2A7
:101F1000FFF76EFF0EE0E0B2FFF77EFF0AE0E0B2EF
:101F2000FFF78EFF06E0E0B2FFF79EFF02E0FFF74B
:101F300041FF00BF00BF70BD10B50024344802F05F
:101F400004FD0446204610BD10B50024324802F0BE
:101F5000FCFC0446204610BD2DE9F84F80460D4696
:101F60001446002600BF00BFB146B24621462648AF
:101F700002F0CEFC2146244802F0CCFC2949098815
:101F800008FB01F02849098800FB01FB274800886D
:101F90004FF4B4714843BBFBF0F087B200211E48F8
:101FA00002F0B0FC00211A4802F0ACFC062D15D25C
:101FB000DFE805F0140306090C10FFF702FF10E03C
:101FC000FFF706FF0DE0FFF70BFF0AE0E0B2FFF7B7
:101FD0000FFF06E0E0B2FFF71FFF02E0FFF7F8FE99
:101FE00000BF00BF4FF4401624E0B94520DABA45DF
:101FF0001EDA094802F0A9FC8146054802F0A5FC5A
:10200000824616E0001001400034014000180140F3
:1020100000080040001401400004004084012342F5
:102020000000234256580008585800085458000829
:1020300002E0761E002ED8D100BF4B46324639460C
:1020400016A0CDF800A003F0CFFABDE8F88F2DE977
:10205000F04107460C4615461E46324601213846D9
:10206000FFF77AFF324629462046FFF775FFBDE8A5
:10207000F08110B5FFF79EFE00240CE021461248C7
:1020800002F046FC2146104802F044FC322001F0E8
:1020900090F8601C84B2632CF0DB10BD7461726731
:1020A00065743D25642C776169743D25642C7469E1
:1020B0006D33636E743D25642C74696D34636E7486
:1020C0003D25640D0A0000000034014008B50121DF
:1020D000402001F0EFFC2020ADF8000010208DF82A
:1020E000030003208DF802006946154801F026FA26
:1020F0002021134801F0D1FA4FF40060ADF8000040
:1021000010208DF8030003208DF8020069460C486A
:1021100001F014FA4FF40061094801F0BEFA08BD5D
:1021200030B10121074A1160074AC2F8AC1105E03D
:102130000021044A1160044AC2F8AC117047000043
:1021400000180140940123420000234200B589B0E9
:102150000121480301F0BBFC0121102001F0AAFC81
:102160004020ADF8200018208DF8230003208DF8C2
:10217000220008A92B4801F0E1F96320ADF818000E
:102180004720ADF814000020ADF81A00ADF8160095
:1021900005A9254801F0C6FD6020ADF80400012026
:1021A000ADF806000020ADF80C0001A91E4801F0B2
:1021B000F6FD08211C4802F041FA00211A4802F0FD
:1021C000A5FB0121184802F009F909B000BD70B55E
:1021D00004460D4624B12946134802F097FB03E05C
:1021E0000021114802F092FB70BD2DE9F041064636
:1021F000884614461F4676B148FA04F57FB13CB1D3
:102200002946094802F082FB6804050C002706E015
:10221000601E84B203E00021034802F077FBBDE8B2
:10222000F08100000010014000340140002114E062
:1022300000F001021AB10122F84B1A6002E00022FC
:10224000F64B1A600022F54B1B1D1A600122F44B5D
:10225000C3F8A42140104A1CD1B20829E8DB70471A
:1022600010B504460020ED49083108602046FFF70C
:10227000DDFF0120EA49C1F8A80110BD30B50546CF
:102280000020E64908310860C020FFF7CFFF002496
:1022900007E0285DFFF7CAFF0020FFF7C7FF601CBB
:1022A000C4B2082CF5DB0120DC490831086030BDE0
:1022B0000EB5DCA103C9CDE901010121202001F007
:1022C000F9FB4FF48070ADF8000014208DF8030086
:1022D00003208DF802006946D44801F02FF94FF42D
:1022E0008071D24801F0D9F94FF40070ADF80000C8
:1022F00014208DF8030003208DF802006946CB48B6
:1023000001F01CF94FF40071C84801F0C6F94FF410
:102310008060ADF8000014208DF8030003208DF8D4
:1023200002006946C14801F009F94FF48061BF48D5
:1023300001F0B3F90320FFF793FF4020FFF790FF70
:1023400001A8FFF79BFF8F20FFF78AFF0EBDFEB5A8
:1023500004460D461646B6A207CA8DE80700012DB1
:1023600005D0022D03D0032D01D0072D0BD10B2E4C
:1023700002D10020605502E01DF80600605520469D
:10238000FFF77CFF72E0042D09D0052D07D0062D44
:1023900005D0082D03D0092D01D00A2D50D1281FBA
:1023A000072847D2DFE800F0040F1A4625303B002B
:1023B00026B1207940F0E000207103E0207920F080
:1023C000E000207137E026B1207940F00E00207146
:1023D00003E0207920F00E0020712CE026B1A079D6
:1023E00040F01E00A07103E0A07920F01E00A07153
:1023F00021E026B1607940F00E00607103E0607961
:1024000020F00E00607116E026B1A07940F0E000E7
:10241000A07103E0A07920F0E000A0710BE026B1EC
:10242000607940F0F000607103E0607920F0F00026
:10243000607100E000BF00BF2046FFF71FFF15E0FE
:102440000B2D0BD109D126B11C20A0703A20E070D1
:1024500002E00020A070E07000BF07E0002703E06A
:102460000020E055781CC7B2082FF9DBFEBD70B51F
:1024700005460C4616460B2C10D10B2E0ED1012111
:102480002846FFF764FF0B2202212846FFF75FFF73
:102490000B2203212846FFF75AFF0BE09E206870AD
:1024A000224602212846FFF752FF324603212846E2
:1024B000FFF74DFF70BD30B505460C46012C44D0EA
:1024C000022C2DD0032C16D0042C53D10B22032127
:1024D0002846FFF73CFF0B2202212846FFF737FF73
:1024E0000B2201212846FFF732FF0B220721284645
:1024F000FFF72DFF53E0012203212846FFF727FFB6
:102500000B2202212846FFF722FF0B220121284639
:10251000FFF71DFF0B2207212846FFF718FF3EE0BB
:10252000012203212846FFF712FF0122022128463B
:10253000FFF70DFF0B2201212846FFF708FF0B22B2
:1025400007212846FFF703FF29E00122032128463F
:10255000FFF7FDFE012202212846FFF7F8FE0122C7
:1025600011462846FFF7F3FE0B2207212846FFF706
:10257000EEFE14E0012203212846FFF7E8FE0122C7
:1025800002212846FFF7E3FE012211462846FFF705
:10259000DEFE012207212846FFF7D9FE00BF00BF5B
:1025A00030BD10B504462548007850B12348007866
:1025B000401E22490870084601782148FFF77BFF3A
:1025C00005E01E48047001781D48FFF774FF10BD38
:1025D0002DE9F74F0C4615460A2C05DA2246012153
:1025E0000098FFF7B4FE32E0182C2BDA26460A20BA
:1025F00096FBF0F100FB116000F0FF0A0A2096FB49
:10260000F0F0C6B23746524601210098FFF79FFE10
:102610003A4607210098FFF79AFE18E0A08122426F
:102620000080224200000000FFFFFF000014014074
:10263000FC60DAF266B6BEE0FFE60000180000209B
:1026400007000020002204210098FFF710FF182C3B
:1026500005DD002204210098FFF709FF24E03C2D4E
:1026600018DAA8460A2098FBF0F100FB118000F070
:10267000FF0B0A2098FBF0F000F0FF08C1465A4615
:1026800003210098FFF763FE4A4602210098FFF7F6
:102690005EFE09E0002202210098FFF758FE0022AA
:1026A00003210098FFF753FEBDE8FE8F3EB50546B7
:1026B0000C460121084601F00AFAADF80450ADF8C5
:1026C00000400020ADF80600ADF8020069464FF06A
:1026D000804001F027FB0121880701F07FFE3EBD0D
:1026E0001FB547214FF6FF70FFF7E0FF01210846B5
:1026F00001F0E0F90121202001F0DCF90B21032099
:1027000001F032F84FF40060ADF8000003208DF8BE
:10271000020048208DF803006946E24800F00EFFF1
:102720004FF40060029000208DF80C0008208DF816
:102730000D0001208DF80E0002A802F067FD282090
:102740008DF8040002208DF805008DF806000120A8
:102750008DF8070001A800F028FE1FBD0EB501216D
:10276000084601F0A7F90121202001F0A3F94FF458
:102770007040ADF8000048208DF803006946C94854
:1027800000F0DCFE0C21032000F0EEFF4FF480503F
:10279000019000208DF8080008208DF80900012024
:1027A0008DF80A0001A802F031FD0D21032000F090
:1027B000DBFF4FF40050019001A802F027FD0E212D
:1027C000032000F0D1FF4FF48040019001A802F0F7
:1027D0001DFD0F21032000F0C7FF4FF400400190C2
:1027E00001A802F013FD0EBD10B54FF4006002F019
:1027F00064FD00281DD0AC480068D8B100214FF01E
:10280000804002F07FF80121880701F0E7FDA7482A
:10281000006820F40060A5490860081D006840F4C5
:102820000060091D0860A248007840F01000A0492F
:10283000087088E04FF08040808C9E49088000211D
:102840004FF0804001F0CAFD9848001D006820F458
:1028500000609649091D0860081F006840F4006088
:10286000091F08609248007800F01000002864D02A
:102870008F48007800F08000002849D08D480088FB
:10288000B0F5967F12DD8B480088B0F5487F0DDAF1
:102890008948006840008849086008460068086068
:1028A00086480078401C8549087046E081480088C9
:1028B000B0F5AF6F14DD7F480088B0F5E16F0FDA37
:1028C0007D48006840007C4908600846006840F088
:1028D0000100086079480078401C784908702CE0B5
:1028E0007448008840F69801884226DD71480088C7
:1028F00040F62821884220DA71480078401C70494F
:1029000008706B48007800F0F0006949087014E026
:102910006848008841F2680188420EDD65480088F9
:1029200041F25C21884208DA6148007840F080007A
:102930005F4908700020624908705D48007820F007
:1029400010005B4908705D480078202835D180016F
:1029500002F0B3FCF8B15648007800F08000D0B126
:102960005348007820F0100051490870084600785C
:1029700000F00F0020B90846007840F040000870D1
:102980004B48007800F00F000E2805DA4848007820
:10299000401C474908700AE04548007820F0800054
:1029A000434908700846007800F0F00008700020E5
:1029B000424908700120434908703C480C300068C7
:1029C00040F4006039490C31086010BD10B500209A
:1029D0003C4B1B7873B3364B1B7803F040032BB38F
:1029E000354B1B68190E344B1B68C3F30742D343A6
:1029F000DBB28B420BD151B92F4B1B88C3F307219C
:102A00002D4B1A78D343DBB28B4200D1084620B15C
:102A1000274B1B7803F0800343B9254B1B7823F029
:102A20004003234C23700023254C23700023254CA6
:102A3000237000E0002010BD10B50020224B1B7851
:102A400073B3224B1B7803F040032BB3204B1B685E
:102A5000190E1F4B1B68C3F30742D343DBB28B42F3
:102A60000BD151B91A4B1B88C3F30721184B1A78A5
:102A7000D343DBB28B4200D1084620B1134B1B7805
:102A800003F0800343B9114B1B7823F040030F4C34
:102A9000237000230A4C237000230B4C237000E0AA
:102AA000002010BD001401402C8122420804014086
:102AB000380000203A0000203C00002041000020A7
:102AC00040000020420000204E0000204300002073
:102AD000480000201FB50121084600F0EBFF01214E
:102AE000082000F0E7FF4FF4F070ADF80C0048202C
:102AF0008DF80F0003A9204800F020FD05210120DA
:102B000000F032FE2020019000208DF808000C20FB
:102B10008DF8090001208DF80A0001A802F076FB6B
:102B20000621012000F020FE4020019001A802F0C3
:102B30006DFB0721012000F017FE8020019001A805
:102B400002F064FB0821012000F00EFE4FF48070BB
:102B5000019001A802F05AFB17208DF80000022016
:102B60008DF8010001208DF802008DF80300684601
:102B700000F01BFC1FBD0000000C014070B50446B6
:102B800000203B490860052000F013FB0120394973
:102B9000C1F88C013C2000F00CFB00203449091DD9
:102BA0000860052000F005FB002526E004F0010088
:102BB00080B101202E49091D08604FF4617000F0BA
:102BC000D4FA00202B49C1F890014FF4967000F020
:102BD000CCFA0FE001202649091D08604FF49670D9
:102BE00000F0C3FA00202349C1F890014FF461704E
:102BF00000F0BBFA6410681CC5B2082DD6DB0120BA
:102C00001B49091D086070BD08B50121402000F076
:102C100051FF0820ADF8000010208DF803000320BC
:102C20008DF802006946144800F088FC082112481B
:102C300000F031FD1020ADF8000069460E4800F0AC
:102C40007DFC10210C4800F026FDE320FFF796FFE5
:102C5000142000F0AEFAF120FFF790FF08BD10B588
:102C60000446F320FFF78AFF2046FFF787FF10BDD9
:102C70008C012342000023420018014001201B491F
:102C800008601B49C1F88801704708B50121502030
:102C900000F010FF4020ADF8000014208DF8030074
:102CA00003208DF802006946124800F047FC4021DD
:102CB000104800F0F2FC0420ADF8000010208DF860
:102CC000030003208DF8020069460B4800F036FC33
:102CD0000421094800F0E1FCFFF7D0FF08BD002007
:102CE000024908600249C1F88801704798012342EF
:102CF00000002242001801400010014010B50121DF
:102D00003E4801F077FB10BD10B500213B4801F0B3
:102D100071FB10BD30B589B005460C46012140F667
:102D2000050000F0C7FE4FF48070ADF804001820D5
:102D30008DF8070003208DF8060001A9304800F047
:102D4000FDFB4FF480712E4800F0A7FCADF81C503D
:102D5000ADF818400020ADF81E00ADF81A0006A925
:102D6000264800F0DFFF6020ADF808000120ADF834
:102D70000A000020ADF8100002A9204801F00FF869
:102D800008211E4801F05AFC01211C4801F026FBD5
:102D900001211A4801F02EFB09B030BD10B54721C2
:102DA0002120FFF7B7FFFFF7AFFF0F21134801F016
:102DB000ADFD10BD10B504460A2C06DA601CC4B285
:102DC00021460E4801F0A2FD04E0042421460B48F0
:102DD00001F09CFDFFF792FF10BD10B50F210748D1
:102DE00001F094FDFFF78AFF10BD10B505210348DF
:102DF00001F08CFDFFF782FF10BD0000002C0140A8
:102E00000008014008B503208DF8000000208DF86F
:102E1000010003208DF8020001208DF803006846B0
:102E200000F0C3FA08BDF0B503460C461546642011
:102E300093FBF0F0C6B2642093FBF0F700FB173071
:102E4000C1B2132E02DD01F16400C1B20846CF17F2
:102E500001EB977701EBA707BAB2072092FBF0F7D7
:102E600000FB172082B25719601EDFF8B0C21CF8B1
:102E70000000384482B2CF1701EB9777BF10A1EB67
:102E800087071FB9032C01DA501E82B2072092FB7C
:102E9000F0F700FB1720C0B2F0BD0146CA1701EBE6
:102EA00092729210A1EB820292B9642091FBF0F22F
:102EB00000FB121050B94FF4C87091FBF0F200FB08
:102EC000121008B9012070470020FCE70120FAE742
:102ED0000020F8E770B500260024002502F036FA3D
:102EE00006468F48B6FBF0F48E480088A0423CD0DE
:102EF0008C490C8040F2B27510E02846FFF7CDFFF8
:102F000040B1B4F5B77F02D3A4F5B77404E0681CF0
:102F100085B206E0A4F26D14681C85B2B4F5B67FE4
:102F2000EBD800BF80488580002516E07E49888860
:102F3000FFF7B3FF30B1012D04D11D2C01D31D3C8F
:102F400009E00CE07948405DA04203D87748405D35
:102F5000241A00E003E0681C85B21C2CE6D200BFF6
:102F6000681C71498871601CC8716D48B6FBF0F12E
:102F700000FB11644FF46160B4FBF0F06A49087023
:102F80004FF46160B4FBF0F100FB11403C21B0FB59
:102F9000F1F0654948704FF46160B4FBF0F100FB5B
:102FA00011403C21B0FBF1F201FB12005E49887038
:102FB0000B46DA7999799888FFF735FF5A490872F4
:102FC000002070BD2DE9F05F06460F4690469946F9
:102FD000DDE90AAB002440F2B270864203DB40F622
:102FE0003300864202DD0120BDE8F09F40F2B27559
:102FF0000AE02846FFF751FF10B14D48044401E0B4
:103000004C480444681C85B2B542F2DB781EC7B256
:10301000002510E04548405D40F2A321484304EB01
:10302000C0143046FFF739FF18B1012D01D13C48DB
:103030000444681C85B2BD42ECDBA8F1010040F2FB
:10304000A321484304EBC014C9EB4910C0EB09208D
:1030500004EB0014CAEB0A1004EB80045C44012169
:103060004FF0C05000F033FD012002F0FEF9204681
:1030700002F075F902F0A6F90020B5E71CB50024AE
:1030800001214FF0C05000F022FD012002F0EDF9C7
:1030900002F046FA4FF4803000F0BEFB04E0601C02
:1030A000C4B20A2000F085F8312000F0D8FB0028D7
:1030B000F5D0FA2C01DB01201CBD4FF4407000F06C
:1030C00082FC012000F085FC02F07CF902F083F91B
:1030D0000121032002F01AF902F074F902F023F939
:1030E0004FF2244002F048F902F06CF90C4802F06B
:1030F00051F902F067F90020232110231F22CDE9A6
:103100000010072140F2DF70FFF75CFF02F014F9B6
:10311000FFF778FEFFF7DEFE0020CDE75A580008E3
:103120008051010050000020AA00002066580008CD
:103130000085E2018033E10110B56FF0040000F07A
:103140007EF92E4800682E49B0FBF1F02D49087039
:103150000846007800EB4001C1EBC0104FF6FF714C
:1031600001EAC0002849088010BD0146254A1278AE
:103170004A434FF0E0235A6100229A611A461269CD
:1031800042F001021A6100BF4FF0E022106900F026
:1031900001021AB100F48032002AF5D04FF0E0228B
:1031A000126922F001024FF0E0231A6100229A61B5
:1031B00070470146144A12884A434FF0E0235A618F
:1031C00000229A611A46126942F001021A6100BF98
:1031D0004FF0E022106900F001021AB100F48032D1
:1031E000002AF5D04FF0E022126922F001024FF0E0
:1031F000E0231A6100229A61704700002400002039
:1032000000127A00520000205400002010B54FF444
:10321000A06000F0C5F810BD014600BF704700BFB8
:103220004B4A128802F04002002AF9D0C2B2484B41
:103230001B1D1A80704710B586B00446012144F268
:10324000040000F037FC424801F0A6FB4FF4007088
:10325000ADF8140003208DF8160018208DF8170023
:1032600005A93C4800F06AF94FF48060ADF81400FD
:1032700004208DF8170005A9364800F05FF92520D5
:103280008DF8000003208DF801008DF80200012068
:103290008DF80300684600F088F801940020ADF82E
:1032A0000800ADF80A00ADF80C00ADF810000C20D5
:1032B000ADF80E0001A9264801F0B1FB012240F251
:1032C0002551234801F043FC0121214801F033FC42
:1032D00006B010BD10B540F225511D4801F01CFD8F
:1032E00010B31B4801F098FCC4B21B48008800F4DE
:1032F0000040C8B91848008800F4804060B10A2C2A
:1033000003D000201449088020E01348008840F4CE
:1033100000401149088019E00D2C06D10E480088A4
:1033200040F480400C49088010E00B480088C0F34E
:103330000D000A490C5408480088401C06490880C2
:1033400008460088C72801DD0020088010BD000065
:1033500000380140000801405C000020B40000205B
:103360000948804709480047FEE7FEE7FEE7FEE719
:10337000FEE7FEE7FEE7FEE7FEE7FEE70448054955
:10338000054A064B704700003B1700083101000852
:10339000E0010020E0070020E0030020E00300201F
:1033A00031490143314A1160704770B50021002353
:1033B0000F22C47804B32D4C246804F4E064C4F5EF
:1033C000E064210AC1F10403CA40447804FA03F11D
:1033D0008478144021430901254C0678A1550478CE
:1033E00004F01F050124AC4005786D11AD0005F116
:1033F000E025C5F8004109E0047804F01F05012428
:10340000AC401C4D0678761145F8264070BD1A4A2E
:103410000A400243154B1B1F1A60704739B1134A0B
:10342000121D12680243114B1B1D1A6006E00F4A61
:10343000121D126882430D4B1B1D1A607047042831
:1034400008D14FF0E021096941F004014FF0E0227A
:10345000116107E04FF0E021096921F004014FF00C
:10346000E0221161704700000000FA050CED00E059
:1034700000E400E080E100E080FFFF1F10B504469B
:10348000CC48844208D10121042000F02DFB00210A
:10349000042000F029FB46E0C748844208D10121FE
:1034A000082000F021FB0021082000F01DFB3AE07D
:1034B000C248844208D10121102000F015FB0021F0
:1034C000102000F011FB2EE0BD48844208D10121FC
:1034D000202000F009FB0021202000F005FB22E065
:1034E000B848844208D10121402000F0FDFA0021B3
:1034F000402000F0F9FA16E0B348844208D10121D7
:10350000802000F0F1FA0021802000F0EDFA0AE0BE
:10351000AE48844207D10121801500F0E5FA002170
:10352000A01500F0E1FA10BD10B50121084600F029
:10353000DBFA0021012000F0D7FA10BD2DE9F0419F
:10354000024600250026002000230024002791F8D1
:1035500003C00CF00F0591F803C00CF0100CBCF187
:10356000000F03D091F802C04CEA050591F800C0A5
:10357000BCF1000F31D0146800202BE04FF0010C9B
:103580000CFA00F3B1F800C00CEA03069E4220D109
:1035900083004FF00F0C0CFA03F7BC4305FA03FC51
:1035A0004CEA040491F803C0BCF1280F06D14FF097
:1035B000010C0CFA00FCC2F814C00AE091F803C038
:1035C000BCF1480F05D14FF0010C0CFA00FCC2F819
:1035D00010C0401C0828D1D31460B1F800C0BCF161
:1035E000FF0F34DD546800202EE000F1080C4FF08E
:1035F000010808FA0CF3B1F800C00CEA03069E4279
:1036000021D183004FF00F0C0CFA03F7BC4305FAED
:1036100003FC4CEA040491F803C0BCF1280F05D167
:1036200000F1080C08FA0CF8C2F8148091F803C0F5
:10363000BCF1480F07D100F1080C4FF0010808FA5F
:103640000CF8C2F81080401C0828CED35460BDE8A6
:10365000F0814FF6FF710180022181700421C17059
:1036600070470246002093680B400BB1012000E038
:10367000002070470146886880B2704702460020EB
:10368000D3680B400BB1012000E0002070470146D9
:10369000C86880B2704701617047416170470AB1E4
:1036A000016100E041617047C16070474FF48032B2
:1036B0000A43826181618261826982697047024640
:1036C0000020434B18684FF68073184040EA021000
:1036D00008433F4B186070473E49C8617047F0B5DA
:1036E0000A46002300240021002500F00046B6F120
:1036F000004F02D1364EF16901E0354E7168C0F3DA
:10370000034583B200F44016B6F5401F08D121F0FE
:1037100070612F4E766826F070662D4F7E6012E045
:1037200000F48016B6F5801F06D1032606FA05F4CC
:10373000A14341F0706106E0460D360103FA06F63A
:10374000B14341F0706122B1460D360103FA06F62D
:10375000314300F00046B6F1004F02D11C4EF1613A
:1037600001E01B4E7160F0BD30B500228B071C0FCD
:103770000F2303FA04F2164B08338C1053F824304D
:103780009343134C08348D1044F8253023468C1095
:1037900053F824308C07240F00FA04F423430C4C14
:1037A00008348D1044F8253030BD0A49DC310860FA
:1037B0007047000000080140000C0140001001406B
:1037C0000014014000180140001C0140002001408D
:1037D0000000014000002042DF48006840F0010086
:1037E000DD49086008464068DC490840DA4948601D
:1037F00008460068DA490840D7490860084600686A
:1038000020F4802008600846406820F4FE004860EC
:103810004FF41F0088607047CF49096821F4803158
:10382000CD4A11601146096821F480211160B0F57C
:10383000803F03D0B0F5802F0ED106E0C64909685D
:1038400041F48031C44A116007E0C349096841F47A
:10385000A021C14A116000E000BF00BF704710B551
:1038600001460022002300204A11012A02D1BA4C4D
:10387000236806E0022A02D1B74C236A01E0B64C65
:10388000636A01F01F02012494401C400CB1012026
:1038900000E0002010BD38B5002000900024002575
:1038A00000BF3120FFF7DBFF05460098401C009069
:1038B0000098B0F5A06F01D0002DF2D03120FFF7B5
:1038C000CEFF08B1012400E00024204638BD0146A7
:1038D0000020A14A106820F0F80040EAC100106002
:1038E0007047A04908607047024600209A4B58680C
:1038F00020F47C1042EA01031843974B586070474C
:1039000098490866704701460020934A506820F0A5
:1039100003000843506070478F48406800F00C0077
:103920007047014600208C4A506820F0F0000843A0
:103930005060704701460020874A506820F4E060DC
:1039400008435060704701460020834A506820F4C5
:10395000605040EAC1005060704729B17E4A527AF7
:1039600002437D4B5A7204E07B4A527A82437A4B7F
:103970005A7270477B49D831086070470146002071
:10398000754A506820F44040084350607047002159
:10399000714A20321170704A82F82010012802D03A
:1039A00004280AD104E001216B4A2032117005E09D
:1039B0000521694A2032117000E000BF00BF704746
:1039C0006949086070476449096A0143624A1162A3
:1039D0007047654944390860704730B500210022BE
:1039E000002400235C4D6D6805F00C0121B1042911
:1039F00005D0082923D105E05C4D056022E05B4D30
:103A000005601FE0544D6D6805F47012524D6D68ED
:103A100005F48034022505EB92421CB9544D554300
:103A200005600BE04C4D6D6805F400351DB1504D3F
:103A30005543056002E04D4D5543056002E04B4D96
:103A4000056000BF00BF444D6D6805F0F001090935
:103A5000484D6B5C0568DD4045603F4D6D6805F481
:103A6000E061090A434D6B5C4568DD4085603A4D75
:103A70006D6805F46051C90A3E4D6B5C4568DD40D8
:103A8000C560354D6D6805F44041890B3A4D6B5C5E
:103A9000C568B5FBF3F5056130BD29B12E4A526901
:103AA00002432D4B5A6104E02B4A526982432A4B50
:103AB0005A61704729B1284A92690243264B9A619C
:103AC00004E0254A92698243234B9A61704729B1E9
:103AD000214AD2690243204BDA6104E01E4AD269CE
:103AE00082431D4BDA61704729B11B4AD2680243F9
:103AF000194BDA6004E0184AD2688243164BDA6048
:103B0000704729B1144A12690243134B1A6104E049
:103B1000114A12698243104B1A61704712494039A9
:103B2000086070470F49C86470470B49C8717047F7
:103B30000948406A40F08070074948627047014672
:103B40000020054A92680A400AB1012000E00020E6
:103B50007047014988727047001002400000FFF86A
:103B6000FFFFF6FE000042428004424200127A004B
:103B700000093D005E0000206E00002010B50446E4
:103B8000FE48844208D10121C014FFF7ADFF002197
:103B9000E014FFF7A9FFC4E0B4F1804F08D1012180
:103BA0000846FFF7AEFF00210120FFF7AAFFB8E0AB
:103BB000F348844208D101210220FFF7A2FF00212F
:103BC0000220FFF79EFFACE0EE48844208D10121BD
:103BD0000420FFF796FF00210420FFF792FFA0E0EA
:103BE000E948844208D101210820FFF78AFF00211B
:103BF0000820FFF786FF94E0E448844208D10121C1
:103C00001020FFF77EFF00211020FFF77AFF88E0E9
:103C1000DF48844208D101212020FFF772FF0021F4
:103C20002020FFF76EFF7CE0DA48844208D10121B2
:103C30004014FFF759FF00216014FFF755FF70E0B3
:103C4000D548844209D10121C804FFF74DFF002166
:103C50004FF40020FFF748FF63E0D048844209D1C9
:103C600001210805FFF740FF00214FF48010FFF706
:103C70003BFF56E0CA48844209D101214805FFF7BD
:103C800033FF00214FF40010FFF72EFF49E0C54835
:103C9000844208D101214020FFF733FF002140205A
:103CA000FFF72FFF3DE0C048844208D1012180206A
:103CB000FFF727FF00218020FFF723FF31E0BB48FB
:103CC000844208D101218015FFF71BFF0021A015B8
:103CD000FFF717FF25E0B648844209D10121080407
:103CE000FFF702FF00214FF48030FFF7FDFE18E0E0
:103CF000B048844209D101214804FFF7F5FE0021B4
:103D00004FF40030FFF7F0FE0BE0AB48844208D1DF
:103D100001218804FFF7E8FE00214FF48020FFF71F
:103D2000E3FE10BD00220288944B98420ED0994BBE
:103D300098420BD0B0F1804F08D0914B984205D0FB
:103D4000904B984202D0904B984204D14FF68F731B
:103D50001A404B881A438D4B984207D08C4B98429F
:103D600004D04FF6FF431A40CB881A4302808B8859
:103D700083850B880385814B98420BD0854B9842F5
:103D800008D08B4B984205D08A4B984202D08A4B80
:103D9000984201D10B7A038601238382704770B564
:103DA000002400220023058C4FF6FE763540058462
:103DB000028C8388048B4FF68F752C40B51E2C40E7
:103DC0000D882C43751E2A400D892A434D882A43AD
:103DD0006A4DA8420BD06F4DA84208D0744DA8423E
:103DE00005D0744DA84202D0734DA84213D14FF6AE
:103DF000F7752A404D892A434FF6FB752A408D8876
:103E00002A434FF6FF652B404FF6FF552B408D8917
:103E10002B43CD892B4383800483CD888586028400
:103E200070BD70B5002400220023058C4FF6EF769C
:103E300035400584028C8388048B48F6FF752C403E
:103E40004FF6FF452C400D884FF6FF7606EA052514
:103E50002C434FF6DF752A400D8906EA05152A43E3
:103E60004D8806EA05152A43444DA84202D0494D23
:103E7000A8421DD14FF67F752A404D894FF6FF7637
:103E800006EA05152A434FF6BF752A408D8806EAD3
:103E900005152A434FF6FF352B404FF2FF752B4097
:103EA0008D8906EA85052B43CD8906EA85052B43D6
:103EB00083800483CD880587028470BD70B500249B
:103EC00000220023058C4FF6FF6635400584028CE6
:103ED0008388848B4FF68F752C404FF6FC752C40F1
:103EE0000D882C434FF6FF552A400D894FF6FF767B
:103EF00006EA05252A434D8806EA05252A431F4D73
:103F0000A84202D0234DA8421DD14FF2FF752A408E
:103F10004D894FF6FF7606EA05252A434FF6FF3511
:103F20002A408D8806EA05252A434EF6FF752B4068
:103F30004DF6FF752B408D8906EA05152B43CD897B
:103F400006EA05152B4383808483CD888587028408
:103F500070BD70B5002200230024058C4EF6FF765C
:103F600035400584038C8488828B48F6FF752A408F
:103F70004FF6FF452A400D8820E00000002C01404C
:103F80000004004000080040000C00400010004009
:103F90000014004000340140004C0140005001403A
:103FA0000054014000180040001C00400020004068
:103FB0000040014000440140004801404FF6FF76B8
:103FC00006EA05252A434DF6FF752B400D8906EAC2
:103FD00005352B434D8806EA05352B43FA4DA8429B
:103FE00002D0FA4DA84208D14BF6FF752C408D89BE
:103FF0004FF6FF7606EA85152C4384808283CD88B0
:10400000A0F84050038470BD828B4FF2FF331A40FA
:104010008283828B4FF6FF7303EA01231A43828364
:104020007047F0B50C461546002200210026078C8B
:104030004EF6FF7C07EA0C070784828B018C4FF653
:10404000FF7707EA043640F6FF473A404FF6FF771E
:1040500007EA05273A434FF6FF7707EA03373A4363
:10406000D94FB8420ED0D94FB8420BD0B0F1804FE3
:1040700008D0D74FB84205D0D64FB84202D0D64F5D
:10408000B84206D14DF6FF77394046F480573943A0
:1040900005E047F6FF57394044F48057394382839F
:1040A0000184F0BD828B4FF6F3731A408283828BBA
:1040B0000A4382837047F0B50C4615460022002162
:1040C0000026078C4FF6FF6C07EA0C070784828BEB
:1040D000018C4FF6FF7707EA04264FF60C773A403B
:1040E0004FF6FF7707EA03172F433A43B64FB8421C
:1040F0000ED0B64FB8420BD0B0F1804F08D0B44FBD
:10410000B84205D0B34FB84202D0B34FB84206D13F
:104110004FF6FF57394046F48077394305E04FF2B8
:10412000FF57394044F48077394382830184F0BDDE
:10413000028B4FF2FF331A400283028B4FF6FF735C
:1041400003EA01231A4302837047F0B50C46154673
:10415000002200210026078C4FF6EF7C07EA0C07AF
:104160000784028B018C4FF6FF7707EA041640F6AE
:10417000FF473A404FF6FF7707EA03373A434FF6D7
:10418000FF7707EA05273A438F4FB8420ED08F4F8B
:10419000B8420BD0B0F1804F08D08D4FB84205D057
:1041A0008C4FB84202D08C4FB84206D14FF6DF7721
:1041B000394046F01007394305E04FF65F77394044
:1041C00044F01007394302830184F0BD028B4FF69F
:1041D000F3731A400283028B0A4302837047F0B5DF
:1041E0000C46154600220021068C4FF6FE773E4015
:1041F0000684028B018C4FF60C7632407E1C06EA58
:1042000003162E433243704EB0420ED06F4EB04272
:104210000BD0B0F1804F08D06D4EB04205D06D4E3E
:10422000B04202D06C4EB04206D14FF6FD7631401E
:1042300044F00106314305E04FF6F576314044F095
:104240000106314302830184F0BD70B505460C467A
:104250005D4885420ED05D4885420BD0B5F1804F58
:1042600008D05B48854205D05A48854202D05A485A
:10427000854200D100E000BF208850B92389A28880
:1042800061882846FFF7ABFFE1882846FFF79EFFCD
:1042900025E0208804280AD12389A288618828463D
:1042A000FFF753FFE1882846FFF742FF17E0208819
:1042B00008280AD12389A28861882846FFF7FBFED7
:1042C000E1882846FFF7EEFE09E02389A28861888D
:1042D0002846FFF7A6FEE1882846FFF795FE70BD49
:1042E0002DE9F04105460C4600260127608808B9F3
:1042F000022600E00026A088012801D1022700E064
:1043000001272088A0B92389A28861882846FFF761
:1043100066FFE1882846FFF759FF23893A46314670
:104320002846FFF712FFE1882846FFF701FF13E058
:104330002389A28861882846FFF707FFE18828467D
:10434000FFF7F6FE23893A4631462846FFF747FF36
:10435000E1882846FFF73AFFBDE8F0810A884B88DC
:104360001A438B881A43CB881A430B891A434B890B
:104370001A438B891A43A0F8442070474FF6FF7107
:10438000818000210180C18041800172704700213D
:10439000018041808180C180018141818181C18111
:1043A0007047002101804180012181800021C1806E
:1043B000018170470021018041808180C18001819D
:1043C0004181818170470000002C01400034014090
:1043D0000004004000080040000C004021B10288A9
:1043E00042F00102028004E002884FF6FE731A4098
:1043F0000280704731B1B0F8442042F40042A0F886
:10440000442005E0B0F84420C2F30E02A0F8442096
:1044100070471AB183890B43838102E083898B4300
:10442000838170478182704741EA0203A0F84830D7
:1044300070471AB183890B43838102E083898B43E0
:104440008381704701894FF6F872114001817047EE
:104450000A46002101894FF68F73194011430181EB
:10446000704730B504460D4629462046FFF7F0FF59
:10447000208940F00700208130BD2DE9F04104463D
:104480000D4616461F46602D06D13B460122314699
:104490002046FFF75AFE05E03B4601223146204602
:1044A000FFF79DFE29462046FFF7D2FF208940F006
:1044B00007002081BDE8F08130B50C46002101895C
:1044C000C9B24FF6FF7505EA032515432543294375
:1044D000018130BD2DE9F04105460E46174698464C
:1044E000002443463A4631462846FFF7E5FF2C892B
:1044F0004FF6F870044044F007044FF68F70044004
:1045000044F070042C81BDE8F081F0B504460D46FE
:1045100016461F463B46324629462046FFF7CCFF4B
:10452000208940F480402081F0BD0185828270475F
:104530000A46002101884FF68F731940114301800C
:104540007047F0B50C4615461E4600210022002398
:104550000189028B038C4FF6F877394021434FF6DF
:10456000FC473A4040F201173A434FF6DD773B40B3
:104570004FF6FF7707EA06172F433B43018102837B
:104580000384F0BD0A460021018B4FF68F7319405A
:104590001143018370470A460021018B48F6FF73DF
:1045A00019404FF6FF7303EA022319430183704752
:1045B0000A460021818B4FF68F7319401143818386
:1045C00070470A460021818B48F6FF7319404FF669
:1045D000FF7303EA022319438183704721B10288E4
:1045E00042F08002028004E002884FF67F731A4096
:1045F0000280704721B1828842F00402828004E088
:1046000082884FF6FB731A408280704721B18288FE
:1046100042F00802828004E082884FF6F7731A4065
:104620008280704721B1828842F00102828004E0DA
:1046300082884FF6FE731A40828070470A46002136
:10464000018B4FF6F77319401143018370470A46F7
:104650000021018B4FF2FF7319404FF6FF7303EAFD
:1046600002231943018370470A460021818B4FF6CC
:10467000F77319401143818370470A460021818BEB
:104680004FF2FF7319404FF6FF7303EA02231943F9
:10469000818370470A460021018B4FF6FB73194056
:1046A0001143018370470A460021018B4FF6FF3307
:1046B00019404FF6FF7303EA022319430183704741
:1046C0000A460021818B4FF6FB7319401143818309
:1046D00070470A460021818B4FF6FF3319404FF691
:1046E000FF7303EA02231943818370470A460021BE
:1046F000018B4FF67F7319401143018370470A46BF
:104700000021018BC1F30E014FF6FF7303EA022370
:104710001943018370470A460021818B4FF67F734E
:1047200019401143818370470A460021818BC1F3F0
:104730000E014FF6FF7303EA02231943818370478A
:104740000A460021018C4FF6FD7319401143018484
:1047500070470A460021018C4FF6F7731940114348
:10476000018470470A460021018C4FF6DF7319401F
:104770004FF6FF7303EA02131943018470470A4698
:104780000021018C4FF67F7319404FF6FF7303EA47
:1047900002131943018470470A460021018C4FF629
:1047A000FF5319404FF6FF7303EA022319430184B4
:1047B00070470A460021018C4FF2FF7319404FF6F3
:1047C000FF7303EA02231943018470470A4600215C
:1047D000018C4DF6FF7319404FF6FF7303EA023365
:1047E00019430184704730B5002301248C40A3B2E3
:1047F000048C9C430484048C02FA01F5ADB22C4372
:10480000048430BD30B5002304248C40A3B2048C52
:104810009C430484048C02FA01F5ADB22C43048459
:1048200030BD70B50346002000241846183001251D
:104830008D40ACB21D8CA5431D8409B1082909D156
:1048400000EB6100056825F07005056005681543FB
:1048500005600EE00D1FC5F34E052844056825F4DC
:10486000E045056005684FF6FF7606EA0226354307
:10487000056070BD21B1028842F00202028004E0AE
:1048800002884FF6FD731A400280704721B10288FA
:1048900042F00402028004E002884FF6FB731A40E3
:1048A0000280704721B1828842F08002828004E059
:1048B00082884FF67F731A408280704702884FF6D5
:1048C000F7731A40028002880A4302807047828888
:1048D0004FF68F731A40828082880A438280704725
:1048E00002894FF6F8731A40028102890A43028155
:1048F000704702894FF67F731A40028102890A438A
:104900000281704781847047818570478186704736
:104910000187704781877047A0F840107047028870
:104920004FF6FF431A40028002880A430280704714
:104930000146888E70470146088F70470146888F70
:1049400070470146B1F8400070470146888C7047B7
:104950000146088D704702460020138A0B400BB1B8
:10496000012000E000207047CA430282704730B542
:104970000246002000230024158A05EA01039589D8
:1049800005EA010413B10CB1012000E0002030BDA4
:10499000CA4302827047000010B50446FB488442B7
:1049A00009D101218803FFF79FF800214FF48040CF
:1049B000FFF79AF832E0F648844209D10121480411
:1049C000FFF79FF800214FF40030FFF79AF825E039
:1049D000F048844209D101218804FFF792F80021B0
:1049E0004FF48020FFF78DF818E0EB48844209D19E
:1049F0000121C804FFF785F800214FF40020FFF7DC
:104A000080F80BE0E548844208D101210805FFF752
:104A100078F800214FF48010FFF773F810BD2DE9EE
:104A2000F04786B005460E460024A24600BFA146C8
:104A30000027B08900B100BF2F462C8A4CF6FF70CA
:104A40000440F08804432C82AC894EF6F3100440F5
:104A5000B08831890843718908430443AC81AC8A2A
:104A60004FF6FF400440B0890443AC8201A8FEF732
:104A7000B4FFC648874202D1DDF810A001E0DDF89E
:104A80000CA0A88900F4004040B10AEBCA0000EB7A
:104A90000A1031684900B0FBF1F807E00AEBCA00E0
:104AA00000EB0A1031688900B0FBF1F86420B8FB14
:104AB000F0F004012009642101FB1089A88900F4A9
:104AC000004040B1322000EBC900B0FBF1F000F033
:104AD0000700044308E0322000EB09106421B0FB1A
:104AE000F1F000F00F0004432C8106B0BDE8F08720
:104AF0004FF41651016000218180C18001810C2199
:104B0000418100218181704710B502460020108A42
:104B10004FF2FF0318400B884C8823438C882343B3
:104B2000CC8823431843108210BD002101804180AE
:104B30008180C180704721B1828942F40052828114
:104B400004E082894DF6FF731A4082817047F0B508
:104B50000346002400260025002040F66A17B942CB
:104B600000D100BF1846C1F3421401F01F0601270F
:104B700007FA06F5012C01D10C3004E0022C01D11A
:104B8000103000E014301AB107682F43076002E0CC
:104B90000768AF430760F0BD1AB1838A0B43838275
:104BA00002E0838A8B4383827047028A4FF6F07358
:104BB0001A400282028A0A430282704782894FF2B7
:104BC000FF731A40828182890A438281704721B132
:104BD000828942F00202828104E082894FF6FD73ED
:104BE0001A4082817047028A4FF6DF731A400282B0
:104BF000028A0A430282704721B1028A42F480424B
:104C0000028204E0028A4BF6FF731A400282704768
:104C1000C1F308028280704701468888C0F308000B
:104C20007047818941F0010181817047028BD2B2C6
:104C30000283028B42EA012202837047028B02F454
:104C40007F420283028B0A430283704721B1828A2A
:104C500042F02002828204E0828A4FF6DF731A401B
:104C60008282704721B1828A42F01002828204E07F
:104C7000828A4FF6EF731A408282704721B1828A8E
:104C800042F00802828204E0828A4FF6F7731A40EB
:104C90008282704721B1828942F40042828103E01E
:104CA0008289C2F30E028281704721B1828A42F466
:104CB0000062828204E0828A4FF2FF731A4082828D
:104CC0007047828A4FF6FB731A408282828A0A43B7
:104CD0008282704721B1828A42F00202828204E01D
:104CE000828A4FF6FD731A40828270470246002086
:104CF000B1F5007F00D100BF13880B400BB101203C
:104D000000E00020704701F40072B2F5007F00D18E
:104D100000BFCA430280704770B5024600240023DA
:104D20000025002040F66A16B14200D100BFC1F351
:104D3000421501F01F03012606FA03F3012D02D1EB
:104D40009689334006E0022D02D1168A334001E0F5
:104D5000968A33400C12012606FA04F41688344071
:104D600013B10CB1012000E0002070BD10B500228D
:104D7000002340F66A14A14200D100BF0A120124A8
:104D80009440A3B2DC43048010BD00000038014011
:104D90000044004000480040004C004000500040EB
:104DA00010B50446FA48844208D101214015FEF7A7
:104DB0009BFE00216015FEF797FE17E0F548844240
:104DC00008D101210015FEF78FFE00212015FEF706
:104DD0008BFE0BE0F048844208D10121C803FEF7A6
:104DE00083FE00214FF40040FEF77EFE10BD30B57B
:104DF0000246002000235068E84C20400D790C68E2
:104E000044EA0524204350609068E54C2040D1E9F5
:104E100002542C434D7944EA450420439060D06A03
:104E200020F470000C7C641EE4B2234340EA03507B
:104E3000D06230BD00210160017141718160C160AB
:104E400001210174704721B1826842F00102826041
:104E500003E0826822F001028260704721B182681B
:104E600042F48072826003E0826822F48072826081
:104E7000704710B50023CBB21AB144681C4344609C
:104E800002E044689C43446010BD816841F0080121
:104E900081607047014600208A6802F008020AB16A
:104EA000012000E000207047816841F0040181602A
:104EB0007047014600208A6802F004020AB101200E
:104EC00000E00020704721B1826842F4A0028260B5
:104ED00003E0826822F4A00282607047014600204D
:104EE0008A6802F480020AB1012000E000207047C5
:104EF00010B50A4600210023416821F46041531E89
:104F000041EA4331416010BD21B1426842F4006280
:104F1000426003E0426822F4006242607047F0B5EC
:104F200004460D4600200021092D11DDE068A5F1A1
:104F30000A0606EB4607072606FA07F18843A5F19D
:104F40000A0606EB460603FA06F10843E0600CE0A9
:104F5000206905EB4507072606FA07F1884305EBAC
:104F6000450603FA06F108432061072A0FDA606B51
:104F7000561E06EB86071F2606FA07F18843561EC3
:104F800006EB860605FA06F10843606322E00D2A67
:104F90000FDA206BD61F06EB86071F2606FA07F1ED
:104FA0008843D61F06EB860605FA06F10843206300
:104FB00010E0E06AA2F10D0606EB86071F2606FA4E
:104FC00007F18843A2F10D0606EB860605FA06F105
:104FD0000843E062F0BD21B1826842F48012826031
:104FE00003E0826822F48012826070470146C86C38
:104FF00080B2704766484C300068704721B1426803
:1050000042F48062426003E0426822F480624260BF
:10501000704721B1426842F48052426003E0426826
:1050200022F48052426070470A460021816821F4D0
:10503000E04111438160704721B1826842F400422F
:10504000826003E0826822F400428260704721B1EE
:10505000826842F40212826003E0826822F4021243
:1050600082607047014600208A6802F400120AB18B
:10507000012000E000207047F0B5044615460020EE
:1050800000220026092911DDE068A1F10A0707EBDB
:10509000470C072707FA0CF29043A1F10A0707EB28
:1050A000470703FA07F21043E0600CE0206901EBC8
:1050B000410C072707FA0CF2904301EB410703FA72
:1050C00007F210432061A06BC0F30156EF1C06F1FC
:1050D000010CA7EB0C0707EB870C1F2707FA0CF254
:1050E0009043EF1C06F1010CA7EB0C0707EB8707B9
:1050F00001FA07F21043A063F0BD10B50A46002183
:105100000023816B21F44011531E41EA0351816356
:1051100010BD08B5002300930090009B0B44009342
:10512000009B1A6008BD08B502460020009000925E
:1051300001F12800009B184400900098006880B29C
:1051400008BD0A4600214168164B194011434160D1
:1051500070474162826270470A460021416821F02F
:105160001F0111434160704740B109490831096886
:1051700041F40001064A0832116007E00449083191
:10518000096821F40001024A0832116070470000EA
:105190000024014000280140003C0140FFFEF0FFD8
:1051A000FDF7F1FFFFFD3FFF0246002013680B40B3
:1051B0000BB1012000E000207047CA430260704735
:1051C00070B502460020002300240B125568CEB2B1
:1051D00005EA060415681D4015B10CB1012000E078
:1051E000002070BD00220A12D34303607047000004
:1051F000002044490860091D0860091D0860091D58
:10520000086041483F4914310860704700213D491A
:105210008279002A3AD00A46126803689A430B46FC
:105220001A600A1D126803689A430B1D1A600279FE
:1052300011440A6803681A430A60324A0832126845
:1052400003689A432F4B08331A601A1D12680368CB
:105250009A432C4B0C331A604279102A0ED11A1F34
:10526000126803681A43274B08331A601A1D126824
:1052700003681A43234B0C331A600DE0214942792D
:1052800011440A6803681A430A6005E00279114470
:105290000A6803689A430A6070470021016001713F
:1052A0000C21417100218171704716491031096844
:1052B0000143144A10321160704701460020114A20
:1052C000143212680A400AB1012000E00020704741
:1052D0000C49143108607047014600200022094B38
:1052E0001B6803EA0102074B14331B680B4013B120
:1052F0000AB1012000E00020704702491431086023
:105300007047000000040140FFFF0F0029B1504A20
:10531000128802434E4B1A8004E04D4A12888243A1
:105320004B4B1A8070474A48001D008840F010001F
:105330004749091D088070474548001D00884FF601
:10534000EF7108404249091D08807047002140481C
:105350001C300188001F008841EA0040704700B5FA
:105360000246FFF7E0FF100C394918310880091D8B
:105370000A80FFF7E1FF00BD00B50246FFF7D3FF4B
:10538000C2F30340324908310880091D0A80FFF743
:10539000D3FF00BD00B50246FFF7C5FF100C2C4936
:1053A00020310880091D0A80FFF7C6FF00BD0020DC
:1053B0002749103109880907080B25491431098844
:1053C0000843704700BF2248001D008800F02000FD
:1053D0000028F8D070471E48001D00884FF6F7716E
:1053E00008401B49091D088000BF1948001D00889E
:1053F00000F008000028F8D0704701460020144A49
:10540000121D12880A400AB1012000E000207047F6
:105410000F49091D098881430D4A121D11807047EB
:10542000014600200A4A121D12880A40D0B2084ADA
:1054300012880A4012B108B1012000E00020704734
:105440000349091D09888143014A121D11807047D3
:105450000028004010B501210807FEF752FB00218B
:105460004FF08050FEF74DFB10BD2A49086270478F
:1054700028490861704701460020274A106820F03B
:10548000E0000843106070472249A031086070476F
:1054900010B502460020204B186820F0030010438E
:1054A00018601E4B1B6843F004031C4C2360012949
:1054B00001D130BF00E020BF184B1B6823F004036C
:1054C000164C236010BD1448006840F004001249D7
:1054D00008600846006840F0020008600F48006855
:1054E00040F004000D49086000BF00BF30BF7047A6
:1054F00001460020084A52680A400AB1012000E033
:10550000002070470449096841EA8001024A11609D
:105510007047000000000E420070004010ED00E0F7
:1055200010B50120FEF7FAFA0020FEF7F7FA10BDD9
:105530002A49086070472949091F086070472749B0
:1055400084310860704701460020254A10884FF6D4
:105550007F4210400843224A1080704701460020D5
:105560001F4A10884FF68072104008431C4A108072
:10557000704708B500220092194A2C3A0092009A0E
:1055800002440092009A116008BD08B5014600204F
:10559000009013482C380090009808440090009820
:1055A000008808BD0D489C300068C0B270470C48A8
:1055B0000830008840F00100094908310880704730
:1055C0000648A0300068C0B270470548083000881F
:1055D00040F00200024908310880704704860D42FD
:1055E0002C6C0040704700000FB4044910B503AAAA
:1055F000029800F0D1F810BC5DF814FB58000020B0
:105600002DE9F0410E460446002020622046E16864
:10561000884730B3252805D0D4E901219047206A76
:10562000401CF2E7E168204600278847050018D0B3
:10563000A5F14100192802D820354FF40067324601
:10564000294620462760FAF7ADFD40B1012804D075
:10565000F61D26F007060836D8E7361DD6E7284699
:10566000DAE7206ABDE8F0812DE9F0410646002422
:1056700010687529314615A510D0AFF300800028B9
:1056800002DA404212A507E031688A0701D511A568
:1056900002E0490704D510A5012401E0AFF3008022
:1056A00000210A2306F1240707E0B0FBF3F203FB15
:1056B0001200303078541046491C0028F5D123469A
:1056C0002A463046BDE8F04100F00CB8000000006A
:1056D0002D0000002B0000002000000070477047E4
:1056E000704770472DE9F0470D46994692460446AB
:1056F00000F124080168880604D5E06921F0100152
:10570000216000E00120A84201DD471B00E00027E6
:10571000A1697A1902EB0900081AA0612078C00675
:1057200002D42046AFF30080002608E0D4E901212E
:105730001AF806009047206A401C761C20624E45ED
:10574000F4DB2078C0060AD52046AFF3008006E0DF
:10575000D4E9012130209047206A401C2062381E85
:10576000A7F10107F4DC07E0D4E9012118F80500EE
:105770009047206A401C2062281EA5F10105F3DC39
:105780002046AFF300802078000602D50220BDE855
:10579000F0870120FBE70000074B70B50D467B4406
:1057A00000F011F80446284600F020F810B14FF040
:1057B000FF3070BD204670BD7DDAFFFF01694A1CD5
:1057C00002610878704700B58FB0CDE90131002142
:1057D000059105497944CDE9031011466846FFF764
:1057E0000FFF0FB000BD0000E5FFFFFF007B00F0E2
:1057F00080007047754600F029F8AE4605006946FE
:10580000534620F00700854618B020B5FDF7B6FDD9
:10581000BDE820404FF000064FF000074FF00008B1
:105820004FF0000B21F00701AC46ACE8C009ACE832
:10583000C009ACE8C009ACE8C0098D467047044611
:10584000AFF300802046FAF7BFFC00000048704725
:105850007C0100201E00960084030003030601045F
:105860000602050003051F1C1F1E1F1E1F1F1E1FF3
:105870001E1F000094580008000000207400000063
:105880006C01000808590008740000206C07000033
:105890008801000800000000000000000000000077
:1058A0000000000000191E001E00010100000000A1
:1058B000000000000000000000A24A0400000000F8
:1058C00000000000010203040607080900000000B0
:1058D00000000000000000000000000000000000C8
:1058E00000000000000000000000000000000000B8
:1058F0000000000000000102030401020304060787
:0859000008090204060800007A
:0400000508000131BD
:00000001FF
